{
  "contractName": "Example",
  "abi": [
    {
      "inputs": [],
      "payable": false,
      "stateMutability": "nonpayable",
      "type": "constructor",
      "signature": "constructor"
    },
    {
      "anonymous": false,
      "inputs": [
        {
          "indexed": false,
          "name": "Id",
          "type": "uint256"
        },
        {
          "indexed": false,
          "name": "Name",
          "type": "string"
        },
        {
          "indexed": false,
          "name": "Pass",
          "type": "string"
        },
        {
          "indexed": false,
          "name": "Email",
          "type": "string"
        }
      ],
      "name": "LogUser",
      "type": "event",
      "signature": "0x3e01d28954fd7049403c3fdcda9bc7f1c8dfebd9513c1bb8fb9eb26a7d0633cf"
    },
    {
      "anonymous": false,
      "inputs": [
        {
          "indexed": false,
          "name": "_value",
          "type": "bool"
        }
      ],
      "name": "LogBool",
      "type": "event",
      "signature": "0xc33356bc2bad2ce263b056da5d061d4e89c336823d5e77f14c1383aedb7a1b3a"
    },
    {
      "constant": true,
      "inputs": [],
      "name": "get",
      "outputs": [
        {
          "name": "id",
          "type": "uint256"
        },
        {
          "name": "name",
          "type": "string"
        },
        {
          "name": "pass",
          "type": "string"
        },
        {
          "name": "email",
          "type": "string"
        }
      ],
      "payable": false,
      "stateMutability": "view",
      "type": "function",
      "signature": "0x6d4ce63c"
    },
    {
      "constant": false,
      "inputs": [],
      "name": "select",
      "outputs": [],
      "payable": false,
      "stateMutability": "nonpayable",
      "type": "function",
      "signature": "0x5398a96b"
    },
    {
      "constant": false,
      "inputs": [],
      "name": "insertObjs",
      "outputs": [],
      "payable": false,
      "stateMutability": "nonpayable",
      "type": "function",
      "signature": "0x82712eea"
    },
    {
      "constant": false,
      "inputs": [],
      "name": "updateObjs",
      "outputs": [],
      "payable": false,
      "stateMutability": "nonpayable",
      "type": "function",
      "signature": "0x46ca3c6d"
    },
    {
      "constant": false,
      "inputs": [],
      "name": "deleteObj",
      "outputs": [],
      "payable": false,
      "stateMutability": "nonpayable",
      "type": "function",
      "signature": "0x3d1ff2e3"
    }
  ],
  "bytecode": "0x60806040526040805190810160405280600581526020017f557365727300000000000000000000000000000000000000000000000000000081525060009080519060200190620000519291906200037c565b503480156200005f57600080fd5b50606060e06040519081016040528060ab81526020016200289560ab913990506200017360008054600181600116156101000203166002900480601f0160208091040260200160405190810160405280929190818152602001828054600181600116156101000203166002900480156200011d5780601f10620000f1576101008083540402835291602001916200011d565b820191906000526020600020905b815481529060010190602001808311620000ff57829003601f168201915b50505050506040805190810160405280600a81526020017f4e616d652c456d61696c00000000000000000000000000000000000000000000815250836200017a6401000000000262002236176401000000009004565b506200042b565b606083838360405160240180806020018060200180602001848103845287818151815260200191508051906020019080838360005b83811015620001cc578082015181840152602081019050620001af565b50505050905090810190601f168015620001fa5780820380516001836020036101000a031916815260200191505b50848103835286818151815260200191508051906020019080838360005b838110156200023557808201518184015260208101905062000218565b50505050905090810190601f168015620002635780820380516001836020036101000a031916815260200191505b50848103825285818151815260200191508051906020019080838360005b838110156200029e57808201518184015260208101905062000281565b50505050905090810190601f168015620002cc5780820380516001836020036101000a031916815260200191505b5096505050505050506040516020818303038152906040527f56004b6a000000000000000000000000000000000000000000000000000000007bffffffffffffffffffffffffffffffffffffffffffffffffffffffff19166020820180517bffffffffffffffffffffffffffffffffffffffffffffffffffffffff8381831617835250505050905080516020820160008183836000610102600019f115156200037457600080fd5b505050505050565b828054600181600116156101000203166002900490600052602060002090601f016020900481019282601f10620003bf57805160ff1916838001178555620003f0565b82800160010185558215620003f0579182015b82811115620003ef578251825591602001919060010190620003d2565b5b509050620003ff919062000403565b5090565b6200042891905b80821115620004245760008160009055506001016200040a565b5090565b90565b61245a806200043b6000396000f3fe60806040526004361061006d576000357c0100000000000000000000000000000000000000000000000000000000900463ffffffff1680633d1ff2e31461007257806346ca3c6d146100895780635398a96b146100a05780636d4ce63c146100b757806382712eea14610226575b600080fd5b34801561007e57600080fd5b5061008761023d565b005b34801561009557600080fd5b5061009e61034c565b005b3480156100ac57600080fd5b506100b56109d5565b005b3480156100c357600080fd5b506100cc611119565b60405180858152602001806020018060200180602001848103845287818151815260200191508051906020019080838360005b8381101561011a5780820151818401526020810190506100ff565b50505050905090810190601f1680156101475780820380516001836020036101000a031916815260200191505b50848103835286818151815260200191508051906020019080838360005b83811015610180578082015181840152602081019050610165565b50505050905090810190601f1680156101ad5780820380516001836020036101000a031916815260200191505b50848103825285818151815260200191508051906020019080838360005b838110156101e65780820151818401526020810190506101cb565b50505050905090810190601f1680156102135780820380516001836020036101000a031916815260200191505b5097505050505050505060405180910390f35b34801561023257600080fd5b5061023b611395565b005b60606002604051602001808260ff1681526020019150506040516020818303038152906040529050600061030b60008054600181600116156101000203166002900480601f0160208091040260200160405190810160405280929190818152602001828054600181600116156101000203166002900480156103005780601f106102d557610100808354040283529160200191610300565b820191906000526020600020905b8154815290600101906020018083116102e357829003601f168201915b505050505083611a1e565b90507fc33356bc2bad2ce263b056da5d061d4e89c336823d5e77f14c1383aedb7a1b3a81604051808215151515815260200191505060405180910390a15050565b610354612203565b6060608060405190810160405280600167ffffffffffffffff1681526020016040805190810160405280600581526020017f486172727900000000000000000000000000000000000000000000000000000081525081526020016040805190810160405280600481526020017f313233340000000000000000000000000000000000000000000000000000000081525081526020016040805190810160405280601081526020017f6861727279406562616b75732e636f6d0000000000000000000000000000000081525081525091508160000151826020015183604001518460600151604051602001808567ffffffffffffffff1667ffffffffffffffff168152602001806020018060200180602001848103845287818151815260200191508051906020019080838360005b8381101561049d578082015181840152602081019050610482565b50505050905090810190601f1680156104ca5780820380516001836020036101000a031916815260200191505b50848103835286818151815260200191508051906020019080838360005b838110156105035780820151818401526020810190506104e8565b50505050905090810190601f1680156105305780820380516001836020036101000a031916815260200191505b50848103825285818151815260200191508051906020019080838360005b8381101561056957808201518184015260208101905061054e565b50505050905090810190601f1680156105965780820380516001836020036101000a031916815260200191505b509750505050505050506040516020818303038152906040529050600061065760008054600181600116156101000203166002900480601f01602080910402602001604051908101604052809291908181526020018280546001816001161561010002031660029004801561064c5780601f106106215761010080835404028352916020019161064c565b820191906000526020600020905b81548152906001019060200180831161062f57829003601f168201915b505050505083611b96565b90507fc33356bc2bad2ce263b056da5d061d4e89c336823d5e77f14c1383aedb7a1b3a81604051808215151515815260200191505060405180910390a1608060405190810160405280600267ffffffffffffffff1681526020016040805190810160405280600581526020017f436872697300000000000000000000000000000000000000000000000000000081525081526020016040805190810160405280600481526020017f343536370000000000000000000000000000000000000000000000000000000081525081526020016040805190810160405280601081526020017f6368726973406562616b75732e636f6d0000000000000000000000000000000081525081525092508260000151836020015184604001518560600151604051602001808567ffffffffffffffff1667ffffffffffffffff168152602001806020018060200180602001848103845287818151815260200191508051906020019080838360005b838110156107db5780820151818401526020810190506107c0565b50505050905090810190601f1680156108085780820380516001836020036101000a031916815260200191505b50848103835286818151815260200191508051906020019080838360005b83811015610841578082015181840152602081019050610826565b50505050905090810190601f16801561086e5780820380516001836020036101000a031916815260200191505b50848103825285818151815260200191508051906020019080838360005b838110156108a757808201518184015260208101905061088c565b50505050905090810190601f1680156108d45780820380516001836020036101000a031916815260200191505b50975050505050505050604051602081830303815290604052915061099360008054600181600116156101000203166002900480601f0160208091040260200160405190810160405280929190818152602001828054600181600116156101000203166002900480156109885780601f1061095d57610100808354040283529160200191610988565b820191906000526020600020905b81548152906001019060200180831161096b57829003601f168201915b505050505083611b96565b90507fc33356bc2bad2ce263b056da5d061d4e89c336823d5e77f14c1383aedb7a1b3a81604051808215151515815260200191505060405180910390a1505050565b6109dd612203565b600060606000610acd60008054600181600116156101000203166002900480601f016020809104026020016040519081016040528092919081815260200182805460018160011615610100020316600290048015610a7c5780601f10610a5157610100808354040283529160200191610a7c565b820191906000526020600020905b815481529060010190602001808311610a5f57829003601f168201915b505050505060206040519081016040528060008152506040805190810160405280600881526020017f4e616d6520415343000000000000000000000000000000000000000000000000815250611d0e565b9050610ad881611f0c565b80945081935050508215610dc457818060200190516080811015610afb57600080fd5b81019080805190602001909291908051640100000000811115610b1d57600080fd5b82810190506020810184811115610b3357600080fd5b8151856001820283011164010000000082111715610b5057600080fd5b50509291906020018051640100000000811115610b6c57600080fd5b82810190506020810184811115610b8257600080fd5b8151856001820283011164010000000082111715610b9f57600080fd5b50509291906020018051640100000000811115610bbb57600080fd5b82810190506020810184811115610bd157600080fd5b8151856001820283011164010000000082111715610bee57600080fd5b50509291905050508760000188602001896040018a6060018490528490528490528467ffffffffffffffff1667ffffffffffffffff16815250505050507f3e01d28954fd7049403c3fdcda9bc7f1c8dfebd9513c1bb8fb9eb26a7d0633cf8460000151856020015186604001518760600151604051808567ffffffffffffffff168152602001806020018060200180602001848103845287818151815260200191508051906020019080838360005b83811015610cb8578082015181840152602081019050610c9d565b50505050905090810190601f168015610ce55780820380516001836020036101000a031916815260200191505b50848103835286818151815260200191508051906020019080838360005b83811015610d1e578082015181840152602081019050610d03565b50505050905090810190601f168015610d4b5780820380516001836020036101000a031916815260200191505b50848103825285818151815260200191508051906020019080838360005b83811015610d84578082015181840152602081019050610d69565b50505050905090810190601f168015610db15780820380516001836020036101000a031916815260200191505b5097505050505050505060405180910390a15b610dcd81611f0c565b809450819350505082156110b957818060200190516080811015610df057600080fd5b81019080805190602001909291908051640100000000811115610e1257600080fd5b82810190506020810184811115610e2857600080fd5b8151856001820283011164010000000082111715610e4557600080fd5b50509291906020018051640100000000811115610e6157600080fd5b82810190506020810184811115610e7757600080fd5b8151856001820283011164010000000082111715610e9457600080fd5b50509291906020018051640100000000811115610eb057600080fd5b82810190506020810184811115610ec657600080fd5b8151856001820283011164010000000082111715610ee357600080fd5b50509291905050508760000188602001896040018a6060018490528490528490528467ffffffffffffffff1667ffffffffffffffff16815250505050507f3e01d28954fd7049403c3fdcda9bc7f1c8dfebd9513c1bb8fb9eb26a7d0633cf8460000151856020015186604001518760600151604051808567ffffffffffffffff168152602001806020018060200180602001848103845287818151815260200191508051906020019080838360005b83811015610fad578082015181840152602081019050610f92565b50505050905090810190601f168015610fda5780820380516001836020036101000a031916815260200191505b50848103835286818151815260200191508051906020019080838360005b83811015611013578082015181840152602081019050610ff8565b50505050905090810190601f1680156110405780820380516001836020036101000a031916815260200191505b50848103825285818151815260200191508051906020019080838360005b8381101561107957808201518184015260208101905061105e565b50505050905090810190601f1680156110a65780820380516001836020036101000a031916815260200191505b5097505050505050505060405180910390a15b6110c281611f0c565b8094508193505050821515156110d757600080fd5b7fc33356bc2bad2ce263b056da5d061d4e89c336823d5e77f14c1383aedb7a1b3a8315604051808215151515815260200191505060405180910390a150505050565b60006060806060611128612203565b606061121460008054600181600116156101000203166002900480601f0160208091040260200160405190810160405280929190818152602001828054600181600116156101000203166002900480156111c35780601f10611198576101008083540402835291602001916111c3565b820191906000526020600020905b8154815290600101906020018083116111a657829003601f168201915b505050505060206040519081016040528060008152506040805190810160405280600981526020017f456d61696c204153430000000000000000000000000000000000000000000000815250611fbd565b905080806020019051608081101561122b57600080fd5b8101908080519060200190929190805164010000000081111561124d57600080fd5b8281019050602081018481111561126357600080fd5b815185600182028301116401000000008211171561128057600080fd5b5050929190602001805164010000000081111561129c57600080fd5b828101905060208101848111156112b257600080fd5b81518560018202830111640100000000821117156112cf57600080fd5b505092919060200180516401000000008111156112eb57600080fd5b8281019050602081018481111561130157600080fd5b815185600182028301116401000000008211171561131e57600080fd5b5050929190505050856000018660200187604001886060018490528490528490528467ffffffffffffffff1667ffffffffffffffff168152505050505081600001518260200151836040015184606001518367ffffffffffffffff1693508292508191508090509550955095509550505090919293565b61139d612203565b6060608060405190810160405280600167ffffffffffffffff1681526020016040805190810160405280600581526020017f486172727900000000000000000000000000000000000000000000000000000081525081526020016040805190810160405280600381526020017f313233000000000000000000000000000000000000000000000000000000000081525081526020016040805190810160405280601081526020017f6861727279406562616b75732e636f6d0000000000000000000000000000000081525081525091508160000151826020015183604001518460600151604051602001808567ffffffffffffffff1667ffffffffffffffff168152602001806020018060200180602001848103845287818151815260200191508051906020019080838360005b838110156114e65780820151818401526020810190506114cb565b50505050905090810190601f1680156115135780820380516001836020036101000a031916815260200191505b50848103835286818151815260200191508051906020019080838360005b8381101561154c578082015181840152602081019050611531565b50505050905090810190601f1680156115795780820380516001836020036101000a031916815260200191505b50848103825285818151815260200191508051906020019080838360005b838110156115b2578082015181840152602081019050611597565b50505050905090810190601f1680156115df5780820380516001836020036101000a031916815260200191505b50975050505050505050604051602081830303815290604052905060006116a060008054600181600116156101000203166002900480601f0160208091040260200160405190810160405280929190818152602001828054600181600116156101000203166002900480156116955780601f1061166a57610100808354040283529160200191611695565b820191906000526020600020905b81548152906001019060200180831161167857829003601f168201915b505050505083611b96565b90507fc33356bc2bad2ce263b056da5d061d4e89c336823d5e77f14c1383aedb7a1b3a81604051808215151515815260200191505060405180910390a1608060405190810160405280600267ffffffffffffffff1681526020016040805190810160405280600581526020017f436872697300000000000000000000000000000000000000000000000000000081525081526020016040805190810160405280600381526020017f343536000000000000000000000000000000000000000000000000000000000081525081526020016040805190810160405280601081526020017f6368726973406562616b75732e636f6d0000000000000000000000000000000081525081525092508260000151836020015184604001518560600151604051602001808567ffffffffffffffff1667ffffffffffffffff168152602001806020018060200180602001848103845287818151815260200191508051906020019080838360005b83811015611824578082015181840152602081019050611809565b50505050905090810190601f1680156118515780820380516001836020036101000a031916815260200191505b50848103835286818151815260200191508051906020019080838360005b8381101561188a57808201518184015260208101905061186f565b50505050905090810190601f1680156118b75780820380516001836020036101000a031916815260200191505b50848103825285818151815260200191508051906020019080838360005b838110156118f05780820151818401526020810190506118d5565b50505050905090810190601f16801561191d5780820380516001836020036101000a031916815260200191505b5097505050505050505060405160208183030381529060405291506119dc60008054600181600116156101000203166002900480601f0160208091040260200160405190810160405280929190818152602001828054600181600116156101000203166002900480156119d15780601f106119a6576101008083540402835291602001916119d1565b820191906000526020600020905b8154815290600101906020018083116119b457829003601f168201915b505050505083611b96565b90507fc33356bc2bad2ce263b056da5d061d4e89c336823d5e77f14c1383aedb7a1b3a81604051808215151515815260200191505060405180910390a1505050565b600060608383604051602401808060200180602001838103835285818151815260200191508051906020019080838360005b83811015611a6b578082015181840152602081019050611a50565b50505050905090810190601f168015611a985780820380516001836020036101000a031916815260200191505b50838103825284818151815260200191508051906020019080838360005b83811015611ad1578082015181840152602081019050611ab6565b50505050905090810190601f168015611afe5780820380516001836020036101000a031916815260200191505b509450505050506040516020818303038152906040527fddbcfb63000000000000000000000000000000000000000000000000000000007bffffffffffffffffffffffffffffffffffffffffffffffffffffffff19166020820180517bffffffffffffffffffffffffffffffffffffffffffffffffffffffff83818316178352505050509050611b8d816121a2565b91505092915050565b600060608383604051602401808060200180602001838103835285818151815260200191508051906020019080838360005b83811015611be3578082015181840152602081019050611bc8565b50505050905090810190601f168015611c105780820380516001836020036101000a031916815260200191505b50838103825284818151815260200191508051906020019080838360005b83811015611c49578082015181840152602081019050611c2e565b50505050905090810190601f168015611c765780820380516001836020036101000a031916815260200191505b509450505050506040516020818303038152906040527f0cd74b36000000000000000000000000000000000000000000000000000000007bffffffffffffffffffffffffffffffffffffffffffffffffffffffff19166020820180517bffffffffffffffffffffffffffffffffffffffffffffffffffffffff83818316178352505050509050611d05816121a2565b91505092915050565b6000606084848460405160240180806020018060200180602001848103845287818151815260200191508051906020019080838360005b83811015611d60578082015181840152602081019050611d45565b50505050905090810190601f168015611d8d5780820380516001836020036101000a031916815260200191505b50848103835286818151815260200191508051906020019080838360005b83811015611dc6578082015181840152602081019050611dab565b50505050905090810190601f168015611df35780820380516001836020036101000a031916815260200191505b50848103825285818151815260200191508051906020019080838360005b83811015611e2c578082015181840152602081019050611e11565b50505050905090810190601f168015611e595780820380516001836020036101000a031916815260200191505b5096505050505050506040516020818303038152906040527f06201393000000000000000000000000000000000000000000000000000000007bffffffffffffffffffffffffffffffffffffffffffffffffffffffff19166020820180517bffffffffffffffffffffffffffffffffffffffffffffffffffffffff838183161783525050505090508051602082016020848383610102600019fa1515611efe57600080fd5b835193505050509392505050565b60606000606083604051602401808281526020019150506040516020818303038152906040527f02d3af5b000000000000000000000000000000000000000000000000000000007bffffffffffffffffffffffffffffffffffffffffffffffffffffffff19166020820180517bffffffffffffffffffffffffffffffffffffffffffffffffffffffff83818316178352505050509050611fab816121ce565b92508260008451119250925050915091565b60608084848460405160240180806020018060200180602001848103845287818151815260200191508051906020019080838360005b8381101561200e578082015181840152602081019050611ff3565b50505050905090810190601f16801561203b5780820380516001836020036101000a031916815260200191505b50848103835286818151815260200191508051906020019080838360005b83811015612074578082015181840152602081019050612059565b50505050905090810190601f1680156120a15780820380516001836020036101000a031916815260200191505b50848103825285818151815260200191508051906020019080838360005b838110156120da5780820151818401526020810190506120bf565b50505050905090810190601f1680156121075780820380516001836020036101000a031916815260200191505b5096505050505050506040516020818303038152906040527f04f61f5a000000000000000000000000000000000000000000000000000000007bffffffffffffffffffffffffffffffffffffffffffffffffffffffff19166020820180517bffffffffffffffffffffffffffffffffffffffffffffffffffffffff83818316178352505050509050612198816121ce565b9150509392505050565b600081516020830160208383836000610102600019f115156121c357600080fd5b825192505050919050565b606081516020830161ffff838383610102600019fa15156121ee57600080fd5b82516020810160405101604052505050919050565b608060405190810160405280600067ffffffffffffffff1681526020016060815260200160608152602001606081525090565b606083838360405160240180806020018060200180602001848103845287818151815260200191508051906020019080838360005b8381101561228657808201518184015260208101905061226b565b50505050905090810190601f1680156122b35780820380516001836020036101000a031916815260200191505b50848103835286818151815260200191508051906020019080838360005b838110156122ec5780820151818401526020810190506122d1565b50505050905090810190601f1680156123195780820380516001836020036101000a031916815260200191505b50848103825285818151815260200191508051906020019080838360005b83811015612352578082015181840152602081019050612337565b50505050905090810190601f16801561237f5780820380516001836020036101000a031916815260200191505b5096505050505050506040516020818303038152906040527f56004b6a000000000000000000000000000000000000000000000000000000007bffffffffffffffffffffffffffffffffffffffffffffffffffffffff19166020820180517bffffffffffffffffffffffffffffffffffffffffffffffffffffffff8381831617835250505050905080516020820160008183836000610102600019f1151561242657600080fd5b50505050505056fea165627a7a72305820bb7ad7c4a0ae13ddffde719923adf44a7f467f4b43c23963e2af02d231d8567e00295b7b2274797065223a227461626c65222c226e616d65223a225573657273222c22696e70757473223a5b7b226e616d65223a224964222c2274797065223a2275696e743634227d2c7b226e616d65223a224e616d65222c2274797065223a22737472696e67227d2c7b226e616d65223a2250617373222c2274797065223a22737472696e67227d2c7b226e616d65223a22456d61696c222c2274797065223a22737472696e67227d5d7d5d",
  "source": "pragma solidity ^0.5.0;\n\nimport \"../EbakusDB.sol\";\n\ncontract Example {\n\tevent LogUser(uint Id, string Name, string Pass, string Email);\n\tevent LogBool(bool _value);\n\n\tstring TableName = \"Users\";\n\n\tstruct User {\n    uint64 Id;\n    string Name;\n    string Pass;\n    string Email;\n  }\n\n\tconstructor() public {\n\t\t// [{\n\t\t// \t\"type\": \"table\",\n\t\t// \t\"name\": \"Users\",\n\t\t// \t\"inputs\": [\n\t\t// \t\t{\"name\": \"Id\", \"type\": \"uint64\"},\n\t\t// \t\t{\"name\": \"Name\", \"type\": \"string\"},\n\t\t// \t\t{\"name\": \"Pass\", \"type\": \"string\"},\n\t\t// \t\t{\"name\": \"Email\", \"type\": \"string\"}\n\t\t// \t]\n\t\t// }]\n\t\tstring memory tablesAbi = '[{\"type\":\"table\",\"name\":\"Users\",\"inputs\":[{\"name\":\"Id\",\"type\":\"uint64\"},{\"name\":\"Name\",\"type\":\"string\"},{\"name\":\"Pass\",\"type\":\"string\"},{\"name\":\"Email\",\"type\":\"string\"}]}]';\n\t\tEbakusDB.createTable(TableName, \"Name,Email\", tablesAbi);\n\t}\n\n\tfunction get() external view returns (uint id, string memory name, string memory pass, string memory email) {\n\t\tUser memory u;\n\n\t\tbytes memory out = EbakusDB.get(TableName, \"\", \"Email ASC\");\n\n\t\t(u.Id, u.Name, u.Pass, u.Email) = abi.decode(out, (uint64, string, string, string));\n\t\treturn (u.Id, u.Name, u.Pass, u.Email);\n\t}\n\n\tfunction select() external {\n\t\tUser memory u;\n\t\tbool found;\n\t\tbytes memory out;\n\n\t\tbytes32 iter = EbakusDB.select(TableName, \"\", \"Name ASC\");\n\n\t\t(out, found) = EbakusDB.next(iter);\n\t\tif (found) {\n\t\t\t(u.Id, u.Name, u.Pass, u.Email) = abi.decode(out, (uint64, string, string, string));\n\t\t\temit LogUser(u.Id, u.Name, u.Pass, u.Email);\n\t\t}\n\n\t\t(out, found) = EbakusDB.next(iter);\n\t\tif (found) {\n\t\t\t(u.Id, u.Name, u.Pass, u.Email) = abi.decode(out, (uint64, string, string, string));\n\t\t\temit LogUser(u.Id, u.Name, u.Pass, u.Email);\n\t\t}\n\n\t\t(out, found) = EbakusDB.next(iter);\n\t\trequire(!found);\n\t\temit LogBool(!found);\n\t}\n\n\tfunction insertObjs() external {\n\t\tUser memory u;\n\t\tbytes memory input;\n\n\t\tu = User(1, \"Harry\", \"123\", \"harry@ebakus.com\");\n\t\tinput = abi.encode(u.Id, u.Name, u.Pass, u.Email);\n\t\tbool out = EbakusDB.insertObj(TableName, input);\n\t\temit LogBool(out);\n\n\t\tu = User(2, \"Chris\", \"456\", \"chris@ebakus.com\");\n\t\tinput = abi.encode(u.Id, u.Name, u.Pass, u.Email);\n\t\tout = EbakusDB.insertObj(TableName, input);\n\t\temit LogBool(out);\n\t}\n\n\tfunction updateObjs() external {\n\t\tUser memory u;\n\t\tbytes memory input;\n\n\t\tu = User(1, \"Harry\", \"1234\", \"harry@ebakus.com\");\n\t\tinput = abi.encode(u.Id, u.Name, u.Pass, u.Email);\n\t\tbool out = EbakusDB.insertObj(TableName, input);\n\t\temit LogBool(out);\n\n\t\tu = User(2, \"Chris\", \"4567\", \"chris@ebakus.com\");\n\t\tinput = abi.encode(u.Id, u.Name, u.Pass, u.Email);\n\t\tout = EbakusDB.insertObj(TableName, input);\n\t\temit LogBool(out);\n\t}\n\n\tfunction deleteObj() external {\n\t\t// delete user with Id=2\n\t\tbytes memory input = abi.encode(2);\n\t\tbool out = EbakusDB.deleteObj(TableName, input);\n\t\temit LogBool(out);\n\t}\n}\n",
  "sourcePath": "/Users/ziogaschr/Sites/ebakus/ebakusdb-solidity/truffle/contracts/examples/Example.sol",
  "compiler": {
    "name": "solc",
    "version": "0.5.0+commit.1d4f565a.Emscripten.clang"
  },
  "schemaVersion": "3.0.6",
  "updatedAt": "2019-09-23T13:19:02.986Z",
  "devdoc": {
    "methods": {}
  },
  "userdoc": {
    "methods": {}
  }
}