{
  "contractName": "Example",
  "abi": [
    {
      "inputs": [],
      "payable": false,
      "stateMutability": "nonpayable",
      "type": "constructor",
      "signature": "constructor"
    },
    {
      "anonymous": false,
      "inputs": [
        {
          "indexed": false,
          "name": "Id",
          "type": "uint256"
        },
        {
          "indexed": false,
          "name": "Name",
          "type": "string"
        },
        {
          "indexed": false,
          "name": "Pass",
          "type": "string"
        },
        {
          "indexed": false,
          "name": "Email",
          "type": "string"
        }
      ],
      "name": "LogUser",
      "type": "event",
      "signature": "0x3e01d28954fd7049403c3fdcda9bc7f1c8dfebd9513c1bb8fb9eb26a7d0633cf"
    },
    {
      "anonymous": false,
      "inputs": [
        {
          "indexed": false,
          "name": "_value",
          "type": "bool"
        }
      ],
      "name": "LogBool",
      "type": "event",
      "signature": "0xc33356bc2bad2ce263b056da5d061d4e89c336823d5e77f14c1383aedb7a1b3a"
    },
    {
      "constant": false,
      "inputs": [],
      "name": "createTable",
      "outputs": [],
      "payable": false,
      "stateMutability": "nonpayable",
      "type": "function",
      "signature": "0xb2a4c897"
    },
    {
      "constant": false,
      "inputs": [],
      "name": "get",
      "outputs": [],
      "payable": false,
      "stateMutability": "nonpayable",
      "type": "function",
      "signature": "0x6d4ce63c"
    },
    {
      "constant": false,
      "inputs": [],
      "name": "select",
      "outputs": [],
      "payable": false,
      "stateMutability": "nonpayable",
      "type": "function",
      "signature": "0x5398a96b"
    },
    {
      "constant": false,
      "inputs": [],
      "name": "insertObjs",
      "outputs": [],
      "payable": false,
      "stateMutability": "nonpayable",
      "type": "function",
      "signature": "0x82712eea"
    },
    {
      "constant": false,
      "inputs": [],
      "name": "updateObjs",
      "outputs": [],
      "payable": false,
      "stateMutability": "nonpayable",
      "type": "function",
      "signature": "0x46ca3c6d"
    },
    {
      "constant": false,
      "inputs": [],
      "name": "deleteObj",
      "outputs": [],
      "payable": false,
      "stateMutability": "nonpayable",
      "type": "function",
      "signature": "0x3d1ff2e3"
    }
  ],
  "bytecode": "0x60806040526040805190810160405280600581526020017f5573657273000000000000000000000000000000000000000000000000000000815250600090805190602001906200005192919062000066565b503480156200005f57600080fd5b5062000115565b828054600181600116156101000203166002900490600052602060002090601f016020900481019282601f10620000a957805160ff1916838001178555620000da565b82800160010185558215620000da579182015b82811115620000d9578251825591602001919060010190620000bc565b5b509050620000e99190620000ed565b5090565b6200011291905b808211156200010e576000816000905550600101620000f4565b5090565b90565b61267c80620001256000396000f3fe608060405260043610610078576000357c0100000000000000000000000000000000000000000000000000000000900463ffffffff1680633d1ff2e31461007d57806346ca3c6d146100945780635398a96b146100ab5780636d4ce63c146100c257806382712eea146100d9578063b2a4c897146100f0575b600080fd5b34801561008957600080fd5b50610092610107565b005b3480156100a057600080fd5b506100a9610216565b005b3480156100b757600080fd5b506100c061089f565b005b3480156100ce57600080fd5b506100d761100c565b005b3480156100e557600080fd5b506100ee61140d565b005b3480156100fc57600080fd5b50610105611a96565b005b60606002604051602001808260ff168152602001915050604051602081830303815290604052905060006101d560008054600181600116156101000203166002900480601f0160208091040260200160405190810160405280929190818152602001828054600181600116156101000203166002900480156101ca5780601f1061019f576101008083540402835291602001916101ca565b820191906000526020600020905b8154815290600101906020018083116101ad57829003601f168201915b505050505083611b91565b90507fc33356bc2bad2ce263b056da5d061d4e89c336823d5e77f14c1383aedb7a1b3a81604051808215151515815260200191505060405180910390a15050565b61021e612572565b6060608060405190810160405280600167ffffffffffffffff1681526020016040805190810160405280600581526020017f486172727900000000000000000000000000000000000000000000000000000081525081526020016040805190810160405280600481526020017f313233340000000000000000000000000000000000000000000000000000000081525081526020016040805190810160405280601081526020017f6861727279406562616b75732e636f6d0000000000000000000000000000000081525081525091508160000151826020015183604001518460600151604051602001808567ffffffffffffffff1667ffffffffffffffff168152602001806020018060200180602001848103845287818151815260200191508051906020019080838360005b8381101561036757808201518184015260208101905061034c565b50505050905090810190601f1680156103945780820380516001836020036101000a031916815260200191505b50848103835286818151815260200191508051906020019080838360005b838110156103cd5780820151818401526020810190506103b2565b50505050905090810190601f1680156103fa5780820380516001836020036101000a031916815260200191505b50848103825285818151815260200191508051906020019080838360005b83811015610433578082015181840152602081019050610418565b50505050905090810190601f1680156104605780820380516001836020036101000a031916815260200191505b509750505050505050506040516020818303038152906040529050600061052160008054600181600116156101000203166002900480601f0160208091040260200160405190810160405280929190818152602001828054600181600116156101000203166002900480156105165780601f106104eb57610100808354040283529160200191610516565b820191906000526020600020905b8154815290600101906020018083116104f957829003601f168201915b505050505083611d09565b90507fc33356bc2bad2ce263b056da5d061d4e89c336823d5e77f14c1383aedb7a1b3a81604051808215151515815260200191505060405180910390a1608060405190810160405280600267ffffffffffffffff1681526020016040805190810160405280600581526020017f436872697300000000000000000000000000000000000000000000000000000081525081526020016040805190810160405280600481526020017f343536370000000000000000000000000000000000000000000000000000000081525081526020016040805190810160405280601081526020017f6368726973406562616b75732e636f6d0000000000000000000000000000000081525081525092508260000151836020015184604001518560600151604051602001808567ffffffffffffffff1667ffffffffffffffff168152602001806020018060200180602001848103845287818151815260200191508051906020019080838360005b838110156106a557808201518184015260208101905061068a565b50505050905090810190601f1680156106d25780820380516001836020036101000a031916815260200191505b50848103835286818151815260200191508051906020019080838360005b8381101561070b5780820151818401526020810190506106f0565b50505050905090810190601f1680156107385780820380516001836020036101000a031916815260200191505b50848103825285818151815260200191508051906020019080838360005b83811015610771578082015181840152602081019050610756565b50505050905090810190601f16801561079e5780820380516001836020036101000a031916815260200191505b50975050505050505050604051602081830303815290604052915061085d60008054600181600116156101000203166002900480601f0160208091040260200160405190810160405280929190818152602001828054600181600116156101000203166002900480156108525780601f1061082757610100808354040283529160200191610852565b820191906000526020600020905b81548152906001019060200180831161083557829003601f168201915b505050505083611d09565b90507fc33356bc2bad2ce263b056da5d061d4e89c336823d5e77f14c1383aedb7a1b3a81604051808215151515815260200191505060405180910390a1505050565b6108a7612572565b600060608060006040519080825280601f01601f1916602001820160405280156108e05781602001600182028038833980820191505090505b50905060006109bf60008054600181600116156101000203166002900480601f01602080910402602001604051908101604052809291908181526020018280546001816001161561010002031660029004801561097e5780601f106109535761010080835404028352916020019161097e565b820191906000526020600020905b81548152906001019060200180831161096157829003601f168201915b50505050506040805190810160405280600481526020017f4e616d650000000000000000000000000000000000000000000000000000000081525084611e81565b90506109ca81612081565b80955081945050508315610cb6578280602001905160808110156109ed57600080fd5b81019080805190602001909291908051640100000000811115610a0f57600080fd5b82810190506020810184811115610a2557600080fd5b8151856001820283011164010000000082111715610a4257600080fd5b50509291906020018051640100000000811115610a5e57600080fd5b82810190506020810184811115610a7457600080fd5b8151856001820283011164010000000082111715610a9157600080fd5b50509291906020018051640100000000811115610aad57600080fd5b82810190506020810184811115610ac357600080fd5b8151856001820283011164010000000082111715610ae057600080fd5b505092919050505088600001896020018a6040018b6060018490528490528490528467ffffffffffffffff1667ffffffffffffffff16815250505050507f3e01d28954fd7049403c3fdcda9bc7f1c8dfebd9513c1bb8fb9eb26a7d0633cf8560000151866020015187604001518860600151604051808567ffffffffffffffff168152602001806020018060200180602001848103845287818151815260200191508051906020019080838360005b83811015610baa578082015181840152602081019050610b8f565b50505050905090810190601f168015610bd75780820380516001836020036101000a031916815260200191505b50848103835286818151815260200191508051906020019080838360005b83811015610c10578082015181840152602081019050610bf5565b50505050905090810190601f168015610c3d5780820380516001836020036101000a031916815260200191505b50848103825285818151815260200191508051906020019080838360005b83811015610c76578082015181840152602081019050610c5b565b50505050905090810190601f168015610ca35780820380516001836020036101000a031916815260200191505b5097505050505050505060405180910390a15b610cbf81612081565b80955081945050508315610fab57828060200190516080811015610ce257600080fd5b81019080805190602001909291908051640100000000811115610d0457600080fd5b82810190506020810184811115610d1a57600080fd5b8151856001820283011164010000000082111715610d3757600080fd5b50509291906020018051640100000000811115610d5357600080fd5b82810190506020810184811115610d6957600080fd5b8151856001820283011164010000000082111715610d8657600080fd5b50509291906020018051640100000000811115610da257600080fd5b82810190506020810184811115610db857600080fd5b8151856001820283011164010000000082111715610dd557600080fd5b505092919050505088600001896020018a6040018b6060018490528490528490528467ffffffffffffffff1667ffffffffffffffff16815250505050507f3e01d28954fd7049403c3fdcda9bc7f1c8dfebd9513c1bb8fb9eb26a7d0633cf8560000151866020015187604001518860600151604051808567ffffffffffffffff168152602001806020018060200180602001848103845287818151815260200191508051906020019080838360005b83811015610e9f578082015181840152602081019050610e84565b50505050905090810190601f168015610ecc5780820380516001836020036101000a031916815260200191505b50848103835286818151815260200191508051906020019080838360005b83811015610f05578082015181840152602081019050610eea565b50505050905090810190601f168015610f325780820380516001836020036101000a031916815260200191505b50848103825285818151815260200191508051906020019080838360005b83811015610f6b578082015181840152602081019050610f50565b50505050905090810190601f168015610f985780820380516001836020036101000a031916815260200191505b5097505050505050505060405180910390a15b610fb481612081565b809550819450505083151515610fc957600080fd5b7fc33356bc2bad2ce263b056da5d061d4e89c336823d5e77f14c1383aedb7a1b3a8415604051808215151515815260200191505060405180910390a15050505050565b611014612572565b606060006040519080825280601f01601f19166020018201604052801561104a5781602001600182028038833980820191505090505b509050606061112960008054600181600116156101000203166002900480601f0160208091040260200160405190810160405280929190818152602001828054600181600116156101000203166002900480156110e85780601f106110bd576101008083540402835291602001916110e8565b820191906000526020600020905b8154815290600101906020018083116110cb57829003601f168201915b50505050506040805190810160405280600581526020017f456d61696c00000000000000000000000000000000000000000000000000000081525084612132565b905080806020019051608081101561114057600080fd5b8101908080519060200190929190805164010000000081111561116257600080fd5b8281019050602081018481111561117857600080fd5b815185600182028301116401000000008211171561119557600080fd5b505092919060200180516401000000008111156111b157600080fd5b828101905060208101848111156111c757600080fd5b81518560018202830111640100000000821117156111e457600080fd5b5050929190602001805164010000000081111561120057600080fd5b8281019050602081018481111561121657600080fd5b815185600182028301116401000000008211171561123357600080fd5b5050929190505050866000018760200188604001896060018490528490528490528467ffffffffffffffff1667ffffffffffffffff16815250505050507f3e01d28954fd7049403c3fdcda9bc7f1c8dfebd9513c1bb8fb9eb26a7d0633cf8360000151846020015185604001518660600151604051808567ffffffffffffffff168152602001806020018060200180602001848103845287818151815260200191508051906020019080838360005b838110156112fd5780820151818401526020810190506112e2565b50505050905090810190601f16801561132a5780820380516001836020036101000a031916815260200191505b50848103835286818151815260200191508051906020019080838360005b83811015611363578082015181840152602081019050611348565b50505050905090810190601f1680156113905780820380516001836020036101000a031916815260200191505b50848103825285818151815260200191508051906020019080838360005b838110156113c95780820151818401526020810190506113ae565b50505050905090810190601f1680156113f65780820380516001836020036101000a031916815260200191505b5097505050505050505060405180910390a1505050565b611415612572565b6060608060405190810160405280600167ffffffffffffffff1681526020016040805190810160405280600581526020017f486172727900000000000000000000000000000000000000000000000000000081525081526020016040805190810160405280600381526020017f313233000000000000000000000000000000000000000000000000000000000081525081526020016040805190810160405280601081526020017f6861727279406562616b75732e636f6d0000000000000000000000000000000081525081525091508160000151826020015183604001518460600151604051602001808567ffffffffffffffff1667ffffffffffffffff168152602001806020018060200180602001848103845287818151815260200191508051906020019080838360005b8381101561155e578082015181840152602081019050611543565b50505050905090810190601f16801561158b5780820380516001836020036101000a031916815260200191505b50848103835286818151815260200191508051906020019080838360005b838110156115c45780820151818401526020810190506115a9565b50505050905090810190601f1680156115f15780820380516001836020036101000a031916815260200191505b50848103825285818151815260200191508051906020019080838360005b8381101561162a57808201518184015260208101905061160f565b50505050905090810190601f1680156116575780820380516001836020036101000a031916815260200191505b509750505050505050506040516020818303038152906040529050600061171860008054600181600116156101000203166002900480601f01602080910402602001604051908101604052809291908181526020018280546001816001161561010002031660029004801561170d5780601f106116e25761010080835404028352916020019161170d565b820191906000526020600020905b8154815290600101906020018083116116f057829003601f168201915b505050505083611d09565b90507fc33356bc2bad2ce263b056da5d061d4e89c336823d5e77f14c1383aedb7a1b3a81604051808215151515815260200191505060405180910390a1608060405190810160405280600267ffffffffffffffff1681526020016040805190810160405280600581526020017f436872697300000000000000000000000000000000000000000000000000000081525081526020016040805190810160405280600381526020017f343536000000000000000000000000000000000000000000000000000000000081525081526020016040805190810160405280601081526020017f6368726973406562616b75732e636f6d0000000000000000000000000000000081525081525092508260000151836020015184604001518560600151604051602001808567ffffffffffffffff1667ffffffffffffffff168152602001806020018060200180602001848103845287818151815260200191508051906020019080838360005b8381101561189c578082015181840152602081019050611881565b50505050905090810190601f1680156118c95780820380516001836020036101000a031916815260200191505b50848103835286818151815260200191508051906020019080838360005b838110156119025780820151818401526020810190506118e7565b50505050905090810190601f16801561192f5780820380516001836020036101000a031916815260200191505b50848103825285818151815260200191508051906020019080838360005b8381101561196857808201518184015260208101905061194d565b50505050905090810190601f1680156119955780820380516001836020036101000a031916815260200191505b509750505050505050506040516020818303038152906040529150611a5460008054600181600116156101000203166002900480601f016020809104026020016040519081016040528092919081815260200182805460018160011615610100020316600290048015611a495780601f10611a1e57610100808354040283529160200191611a49565b820191906000526020600020905b815481529060010190602001808311611a2c57829003601f168201915b505050505083611d09565b90507fc33356bc2bad2ce263b056da5d061d4e89c336823d5e77f14c1383aedb7a1b3a81604051808215151515815260200191505060405180910390a1505050565b606060e06040519081016040528060ab81526020016125a660ab91399050611b8e60008054600181600116156101000203166002900480601f016020809104026020016040519081016040528092919081815260200182805460018160011615610100020316600290048015611b4d5780601f10611b2257610100808354040283529160200191611b4d565b820191906000526020600020905b815481529060010190602001808311611b3057829003601f168201915b50505050506040805190810160405280600a81526020017f4e616d652c456d61696c0000000000000000000000000000000000000000000081525083612317565b50565b600060608383604051602401808060200180602001838103835285818151815260200191508051906020019080838360005b83811015611bde578082015181840152602081019050611bc3565b50505050905090810190601f168015611c0b5780820380516001836020036101000a031916815260200191505b50838103825284818151815260200191508051906020019080838360005b83811015611c44578082015181840152602081019050611c29565b50505050905090810190601f168015611c715780820380516001836020036101000a031916815260200191505b509450505050506040516020818303038152906040527fddbcfb63000000000000000000000000000000000000000000000000000000007bffffffffffffffffffffffffffffffffffffffffffffffffffffffff19166020820180517bffffffffffffffffffffffffffffffffffffffffffffffffffffffff83818316178352505050509050611d008161250f565b91505092915050565b600060608383604051602401808060200180602001838103835285818151815260200191508051906020019080838360005b83811015611d56578082015181840152602081019050611d3b565b50505050905090810190601f168015611d835780820380516001836020036101000a031916815260200191505b50838103825284818151815260200191508051906020019080838360005b83811015611dbc578082015181840152602081019050611da1565b50505050905090810190601f168015611de95780820380516001836020036101000a031916815260200191505b509450505050506040516020818303038152906040527f0cd74b36000000000000000000000000000000000000000000000000000000007bffffffffffffffffffffffffffffffffffffffffffffffffffffffff19166020820180517bffffffffffffffffffffffffffffffffffffffffffffffffffffffff83818316178352505050509050611e788161250f565b91505092915050565b6000606084848460405160240180806020018060200180602001848103845287818151815260200191508051906020019080838360005b83811015611ed3578082015181840152602081019050611eb8565b50505050905090810190601f168015611f005780820380516001836020036101000a031916815260200191505b50848103835286818151815260200191508051906020019080838360005b83811015611f39578082015181840152602081019050611f1e565b50505050905090810190601f168015611f665780820380516001836020036101000a031916815260200191505b50848103825285818151815260200191508051906020019080838360005b83811015611f9f578082015181840152602081019050611f84565b50505050905090810190601f168015611fcc5780820380516001836020036101000a031916815260200191505b5096505050505050506040516020818303038152906040527f71de1b83000000000000000000000000000000000000000000000000000000007bffffffffffffffffffffffffffffffffffffffffffffffffffffffff19166020820180517bffffffffffffffffffffffffffffffffffffffffffffffffffffffff8381831617835250505050905080516020820160208483836000610102600019f1151561207357600080fd5b835193505050509392505050565b60606000606083604051602401808281526020019150506040516020818303038152906040527f02d3af5b000000000000000000000000000000000000000000000000000000007bffffffffffffffffffffffffffffffffffffffffffffffffffffffff19166020820180517bffffffffffffffffffffffffffffffffffffffffffffffffffffffff838183161783525050505090506121208161253b565b92508260008451119250925050915091565b60608084848460405160240180806020018060200180602001848103845287818151815260200191508051906020019080838360005b83811015612183578082015181840152602081019050612168565b50505050905090810190601f1680156121b05780820380516001836020036101000a031916815260200191505b50848103835286818151815260200191508051906020019080838360005b838110156121e95780820151818401526020810190506121ce565b50505050905090810190601f1680156122165780820380516001836020036101000a031916815260200191505b50848103825285818151815260200191508051906020019080838360005b8381101561224f578082015181840152602081019050612234565b50505050905090810190601f16801561227c5780820380516001836020036101000a031916815260200191505b5096505050505050506040516020818303038152906040527fb7c6052f000000000000000000000000000000000000000000000000000000007bffffffffffffffffffffffffffffffffffffffffffffffffffffffff19166020820180517bffffffffffffffffffffffffffffffffffffffffffffffffffffffff8381831617835250505050905061230d8161253b565b9150509392505050565b606083838360405160240180806020018060200180602001848103845287818151815260200191508051906020019080838360005b8381101561236757808201518184015260208101905061234c565b50505050905090810190601f1680156123945780820380516001836020036101000a031916815260200191505b50848103835286818151815260200191508051906020019080838360005b838110156123cd5780820151818401526020810190506123b2565b50505050905090810190601f1680156123fa5780820380516001836020036101000a031916815260200191505b50848103825285818151815260200191508051906020019080838360005b83811015612433578082015181840152602081019050612418565b50505050905090810190601f1680156124605780820380516001836020036101000a031916815260200191505b5096505050505050506040516020818303038152906040527f56004b6a000000000000000000000000000000000000000000000000000000007bffffffffffffffffffffffffffffffffffffffffffffffffffffffff19166020820180517bffffffffffffffffffffffffffffffffffffffffffffffffffffffff8381831617835250505050905080516020820160008183836000610102600019f1151561250757600080fd5b505050505050565b600081516020830160208383836000610102600019f1151561253057600080fd5b825192505050919050565b606081516020830161ffff8383836000610102600019f1151561255d57600080fd5b82516020810160405101604052505050919050565b608060405190810160405280600067ffffffffffffffff168152602001606081526020016060815260200160608152509056fe5b7b2274797065223a227461626c65222c226e616d65223a225573657273222c22696e70757473223a5b7b226e616d65223a224964222c2274797065223a2275696e743634227d2c7b226e616d65223a224e616d65222c2274797065223a22737472696e67227d2c7b226e616d65223a2250617373222c2274797065223a22737472696e67227d2c7b226e616d65223a22456d61696c222c2274797065223a22737472696e67227d5d7d5da165627a7a72305820e72e01718a5efbd425edf81a9343df2c308f152e950bbd96e9a587f9ecdc50480029",
  "source": "pragma solidity ^0.5.0;\n\nimport \"../EbakusDB.sol\";\n\ncontract Example {\n\tevent LogUser(uint Id, string Name, string Pass, string Email);\n\tevent LogBool(bool _value);\n\n\tstring TableName = \"Users\";\n\n\tstruct User {\n    uint64 Id;\n    string Name;\n    string Pass;\n    string Email;\n  }\n\n\tconstructor() public {\n\t}\n\n\t// This is the constructor which creates the db tables and registers the ABI for them.\n\t// constructor() public {\n\t// \t// [{\n\t// \t// \t\"type\": \"table\",\n\t// \t// \t\"name\": \"Users\",\n\t// \t// \t\"inputs\": [\n\t// \t// \t\t{\"name\": \"Id\", \"type\": \"uint64\"},\n\t// \t// \t\t{\"name\": \"Name\", \"type\": \"string\"},\n\t// \t// \t\t{\"name\": \"Pass\", \"type\": \"string\"},\n\t// \t// \t\t{\"name\": \"Email\", \"type\": \"string\"}\n\t// \t// \t]\n\t// \t// }]\n\t// \tstring memory tablesAbi = '[{\"type\":\"table\",\"name\":\"Users\",\"inputs\":[{\"name\":\"Id\",\"type\":\"uint64\"},{\"name\":\"Name\",\"type\":\"string\"},{\"name\":\"Pass\",\"type\":\"string\"}]}]';\n\n\t// \tbool created = EbakusDB.createTable(TableName, \"Name\", tablesAbi);\n\t// \trequire(created);\n\t// }\n\n\tfunction createTable() external {\n\t\t// [{\n\t\t// \t\"type\": \"table\",\n\t\t// \t\"name\": \"Users\",\n\t\t// \t\"inputs\": [\n\t\t// \t\t{\"name\": \"Id\", \"type\": \"uint64\"},\n\t\t// \t\t{\"name\": \"Name\", \"type\": \"string\"},\n\t\t// \t\t{\"name\": \"Pass\", \"type\": \"string\"},\n\t\t// \t\t{\"name\": \"Email\", \"type\": \"string\"}\n\t\t// \t]\n\t\t// }]\n\t\tstring memory tablesAbi = '[{\"type\":\"table\",\"name\":\"Users\",\"inputs\":[{\"name\":\"Id\",\"type\":\"uint64\"},{\"name\":\"Name\",\"type\":\"string\"},{\"name\":\"Pass\",\"type\":\"string\"},{\"name\":\"Email\",\"type\":\"string\"}]}]';\n\t\tEbakusDB.createTable(TableName, \"Name,Email\", tablesAbi);\n\t}\n\n\tfunction get() external {\n\t\tUser memory u;\n\n\t\tbytes memory prefix = new bytes(0);\n\t\tbytes memory out = EbakusDB.get(TableName, \"Email\", prefix);\n\n\t\t(u.Id, u.Name, u.Pass, u.Email) = abi.decode(out, (uint64, string, string, string));\n\t\temit LogUser(u.Id, u.Name, u.Pass, u.Email);\n\t}\n\n\tfunction select() external {\n\t\tUser memory u;\n\t\tbool found;\n\t\tbytes memory out;\n\n\t\tbytes memory prefix = new bytes(0);\n\t\tbytes32 iter = EbakusDB.select(TableName, \"Name\", prefix);\n\n\t\t(out ,found) = EbakusDB.next(iter);\n\t\tif (found) {\n\t\t\t(u.Id, u.Name, u.Pass, u.Email) = abi.decode(out, (uint64, string, string, string));\n\t\t\temit LogUser(u.Id, u.Name, u.Pass, u.Email);\n\t\t}\n\n\t\t(out ,found) = EbakusDB.next(iter);\n\t\tif (found) {\n\t\t\t(u.Id, u.Name, u.Pass, u.Email) = abi.decode(out, (uint64, string, string, string));\n\t\t\temit LogUser(u.Id, u.Name, u.Pass, u.Email);\n\t\t}\n\n\t\t(out ,found) = EbakusDB.next(iter);\n\t\trequire(!found);\n\t\temit LogBool(!found);\n\t}\n\n\tfunction insertObjs() external {\n\t\tUser memory u;\n\t\tbytes memory input;\n\n\t\tu = User(1, \"Harry\", \"123\", \"harry@ebakus.com\");\n\t\tinput = abi.encode(u.Id, u.Name, u.Pass, u.Email);\n\t\tbool out = EbakusDB.insertObj(TableName, input);\n\t\temit LogBool(out);\n\n\t\tu = User(2, \"Chris\", \"456\", \"chris@ebakus.com\");\n\t\tinput = abi.encode(u.Id, u.Name, u.Pass, u.Email);\n\t\tout = EbakusDB.insertObj(TableName, input);\n\t\temit LogBool(out);\n\t}\n\n\tfunction updateObjs() external {\n\t\tUser memory u;\n\t\tbytes memory input;\n\n\t\tu = User(1, \"Harry\", \"1234\", \"harry@ebakus.com\");\n\t\tinput = abi.encode(u.Id, u.Name, u.Pass, u.Email);\n\t\tbool out = EbakusDB.insertObj(TableName, input);\n\t\temit LogBool(out);\n\n\t\tu = User(2, \"Chris\", \"4567\", \"chris@ebakus.com\");\n\t\tinput = abi.encode(u.Id, u.Name, u.Pass, u.Email);\n\t\tout = EbakusDB.insertObj(TableName, input);\n\t\temit LogBool(out);\n\t}\n\n\tfunction deleteObj() external {\n\t\t// delete user with Id=1\n\t\tbytes memory input = abi.encode(2);\n\t\tbool out = EbakusDB.deleteObj(TableName, input);\n\t\temit LogBool(out);\n\t}\n}\n",
  "sourcePath": "/Users/ziogaschr/Sites/ebakus/ebakusdb-solidity/truffle/contracts/examples/Example.sol",
  "compiler": {
    "name": "solc",
    "version": "0.5.0+commit.1d4f565a.Emscripten.clang"
  },
  "schemaVersion": "3.0.6",
  "updatedAt": "2019-04-16T14:24:27.833Z",
  "devdoc": {
    "methods": {}
  },
  "userdoc": {
    "methods": {}
  }
}