{
  "contractName": "Example",
  "abi": [
    {
      "inputs": [],
      "payable": false,
      "stateMutability": "nonpayable",
      "type": "constructor",
      "signature": "constructor"
    },
    {
      "anonymous": false,
      "inputs": [
        {
          "indexed": false,
          "name": "Id",
          "type": "uint256"
        },
        {
          "indexed": false,
          "name": "Name",
          "type": "string"
        },
        {
          "indexed": false,
          "name": "Pass",
          "type": "string"
        }
      ],
      "name": "LogUser",
      "type": "event",
      "signature": "0xf45e4c0622affcceb3f0efde18f5b7744f002db8ab848048e8d744b852da59cd"
    },
    {
      "anonymous": false,
      "inputs": [
        {
          "indexed": false,
          "name": "_value",
          "type": "bool"
        }
      ],
      "name": "LogBool",
      "type": "event",
      "signature": "0xc33356bc2bad2ce263b056da5d061d4e89c336823d5e77f14c1383aedb7a1b3a"
    },
    {
      "constant": false,
      "inputs": [],
      "name": "createTable",
      "outputs": [],
      "payable": false,
      "stateMutability": "nonpayable",
      "type": "function",
      "signature": "0xb2a4c897"
    },
    {
      "constant": false,
      "inputs": [],
      "name": "get",
      "outputs": [],
      "payable": false,
      "stateMutability": "nonpayable",
      "type": "function",
      "signature": "0x6d4ce63c"
    },
    {
      "constant": false,
      "inputs": [],
      "name": "select",
      "outputs": [],
      "payable": false,
      "stateMutability": "nonpayable",
      "type": "function",
      "signature": "0x5398a96b"
    },
    {
      "constant": false,
      "inputs": [],
      "name": "insertObj",
      "outputs": [],
      "payable": false,
      "stateMutability": "nonpayable",
      "type": "function",
      "signature": "0x4e44a8e2"
    },
    {
      "constant": false,
      "inputs": [],
      "name": "insertObj2",
      "outputs": [],
      "payable": false,
      "stateMutability": "nonpayable",
      "type": "function",
      "signature": "0xb744d156"
    },
    {
      "constant": false,
      "inputs": [],
      "name": "deleteObj",
      "outputs": [],
      "payable": false,
      "stateMutability": "nonpayable",
      "type": "function",
      "signature": "0x3d1ff2e3"
    }
  ],
  "bytecode": "0x60806040526040805190810160405280600581526020017f5573657273000000000000000000000000000000000000000000000000000000815250600090805190602001906200005192919062000066565b503480156200005f57600080fd5b5062000115565b828054600181600116156101000203166002900490600052602060002090601f016020900481019282601f10620000a957805160ff1916838001178555620000da565b82800160010185558215620000da579182015b82811115620000d9578251825591602001919060010190620000bc565b5b509050620000e99190620000ed565b5090565b6200011291905b808211156200010e576000816000905550600101620000f4565b5090565b90565b61235980620001256000396000f3fe608060405260043610610078576000357c0100000000000000000000000000000000000000000000000000000000900463ffffffff1680633d1ff2e31461007d5780634e44a8e2146100945780635398a96b146100ab5780636d4ce63c146100c2578063b2a4c897146100d9578063b744d156146100f0575b600080fd5b34801561008957600080fd5b50610092610107565b005b3480156100a057600080fd5b506100a9610216565b005b3480156100b757600080fd5b506100c0610746565b005b3480156100ce57600080fd5b506100d7610f32565b005b3480156100e557600080fd5b506100ee61126b565b005b3480156100fc57600080fd5b50610105611366565b005b60606002604051602001808260ff168152602001915050604051602081830303815290604052905060006101d560008054600181600116156101000203166002900480601f0160208091040260200160405190810160405280929190818152602001828054600181600116156101000203166002900480156101ca5780601f1061019f576101008083540402835291602001916101ca565b820191906000526020600020905b8154815290600101906020018083116101ad57829003601f168201915b505050505083611896565b90507fc33356bc2bad2ce263b056da5d061d4e89c336823d5e77f14c1383aedb7a1b3a81604051808215151515815260200191505060405180910390a15050565b61021e612277565b60608060405190810160405280600167ffffffffffffffff1681526020016040805190810160405280600581526020017f486172727900000000000000000000000000000000000000000000000000000081525081526020016040805190810160405280600381526020017f31323300000000000000000000000000000000000000000000000000000000008152508152509150816000015182602001518360400151604051602001808467ffffffffffffffff1667ffffffffffffffff1681526020018060200180602001838103835285818151815260200191508051906020019080838360005b83811015610322578082015181840152602081019050610307565b50505050905090810190601f16801561034f5780820380516001836020036101000a031916815260200191505b50838103825284818151815260200191508051906020019080838360005b8381101561038857808201518184015260208101905061036d565b50505050905090810190601f1680156103b55780820380516001836020036101000a031916815260200191505b50955050505050506040516020818303038152906040529050600061047460008054600181600116156101000203166002900480601f0160208091040260200160405190810160405280929190818152602001828054600181600116156101000203166002900480156104695780601f1061043e57610100808354040283529160200191610469565b820191906000526020600020905b81548152906001019060200180831161044c57829003601f168201915b505050505083611a0e565b90507fc33356bc2bad2ce263b056da5d061d4e89c336823d5e77f14c1383aedb7a1b3a81604051808215151515815260200191505060405180910390a1606060405190810160405280600267ffffffffffffffff1681526020016040805190810160405280600581526020017f436872697300000000000000000000000000000000000000000000000000000081525081526020016040805190810160405280600381526020017f34353600000000000000000000000000000000000000000000000000000000008152508152509250826000015183602001518460400151604051602001808467ffffffffffffffff1667ffffffffffffffff1681526020018060200180602001838103835285818151815260200191508051906020019080838360005b838110156105b4578082015181840152602081019050610599565b50505050905090810190601f1680156105e15780820380516001836020036101000a031916815260200191505b50838103825284818151815260200191508051906020019080838360005b8381101561061a5780820151818401526020810190506105ff565b50505050905090810190601f1680156106475780820380516001836020036101000a031916815260200191505b5095505050505050604051602081830303815290604052915061070460008054600181600116156101000203166002900480601f0160208091040260200160405190810160405280929190818152602001828054600181600116156101000203166002900480156106f95780601f106106ce576101008083540402835291602001916106f9565b820191906000526020600020905b8154815290600101906020018083116106dc57829003601f168201915b505050505083611a0e565b90507fc33356bc2bad2ce263b056da5d061d4e89c336823d5e77f14c1383aedb7a1b3a81604051808215151515815260200191505060405180910390a1505050565b61074e612277565b600060608060006040519080825280601f01601f1916602001820160405280156107875781602001600182028038833980820191505090505b509050600061086660008054600181600116156101000203166002900480601f0160208091040260200160405190810160405280929190818152602001828054600181600116156101000203166002900480156108255780601f106107fa57610100808354040283529160200191610825565b820191906000526020600020905b81548152906001019060200180831161080857829003601f168201915b50505050506040805190810160405280600481526020017f4e616d650000000000000000000000000000000000000000000000000000000081525084611b86565b905061087181611d86565b80955081945050508315610a955782806020019051606081101561089457600080fd5b810190808051906020019092919080516401000000008111156108b657600080fd5b828101905060208101848111156108cc57600080fd5b81518560018202830111640100000000821117156108e957600080fd5b5050929190602001805164010000000081111561090557600080fd5b8281019050602081018481111561091b57600080fd5b815185600182028301116401000000008211171561093857600080fd5b50509291905050508760000188602001896040018390528390528367ffffffffffffffff1667ffffffffffffffff168152505050507ff45e4c0622affcceb3f0efde18f5b7744f002db8ab848048e8d744b852da59cd856000015186602001518760400151604051808467ffffffffffffffff1681526020018060200180602001838103835285818151815260200191508051906020019080838360005b838110156109f15780820151818401526020810190506109d6565b50505050905090810190601f168015610a1e5780820380516001836020036101000a031916815260200191505b50838103825284818151815260200191508051906020019080838360005b83811015610a57578082015181840152602081019050610a3c565b50505050905090810190601f168015610a845780820380516001836020036101000a031916815260200191505b509550505050505060405180910390a15b610a9e81611d86565b80955081945050508315610cc257828060200190516060811015610ac157600080fd5b81019080805190602001909291908051640100000000811115610ae357600080fd5b82810190506020810184811115610af957600080fd5b8151856001820283011164010000000082111715610b1657600080fd5b50509291906020018051640100000000811115610b3257600080fd5b82810190506020810184811115610b4857600080fd5b8151856001820283011164010000000082111715610b6557600080fd5b50509291905050508760000188602001896040018390528390528367ffffffffffffffff1667ffffffffffffffff168152505050507ff45e4c0622affcceb3f0efde18f5b7744f002db8ab848048e8d744b852da59cd856000015186602001518760400151604051808467ffffffffffffffff1681526020018060200180602001838103835285818151815260200191508051906020019080838360005b83811015610c1e578082015181840152602081019050610c03565b50505050905090810190601f168015610c4b5780820380516001836020036101000a031916815260200191505b50838103825284818151815260200191508051906020019080838360005b83811015610c84578082015181840152602081019050610c69565b50505050905090810190601f168015610cb15780820380516001836020036101000a031916815260200191505b509550505050505060405180910390a15b610ccb81611d86565b80955081945050507fc33356bc2bad2ce263b056da5d061d4e89c336823d5e77f14c1383aedb7a1b3a8415604051808215151515815260200191505060405180910390a18315610f2b57828060200190516060811015610d2a57600080fd5b81019080805190602001909291908051640100000000811115610d4c57600080fd5b82810190506020810184811115610d6257600080fd5b8151856001820283011164010000000082111715610d7f57600080fd5b50509291906020018051640100000000811115610d9b57600080fd5b82810190506020810184811115610db157600080fd5b8151856001820283011164010000000082111715610dce57600080fd5b50509291905050508760000188602001896040018390528390528367ffffffffffffffff1667ffffffffffffffff168152505050507ff45e4c0622affcceb3f0efde18f5b7744f002db8ab848048e8d744b852da59cd856000015186602001518760400151604051808467ffffffffffffffff1681526020018060200180602001838103835285818151815260200191508051906020019080838360005b83811015610e87578082015181840152602081019050610e6c565b50505050905090810190601f168015610eb45780820380516001836020036101000a031916815260200191505b50838103825284818151815260200191508051906020019080838360005b83811015610eed578082015181840152602081019050610ed2565b50505050905090810190601f168015610f1a5780820380516001836020036101000a031916815260200191505b509550505050505060405180910390a15b5050505050565b610f3a612277565b606060006040519080825280601f01601f191660200182016040528015610f705781602001600182028038833980820191505090505b509050606061104f60008054600181600116156101000203166002900480601f01602080910402602001604051908101604052809291908181526020018280546001816001161561010002031660029004801561100e5780601f10610fe35761010080835404028352916020019161100e565b820191906000526020600020905b815481529060010190602001808311610ff157829003601f168201915b50505050506040805190810160405280600481526020017f4e616d650000000000000000000000000000000000000000000000000000000081525084611e37565b905080806020019051606081101561106657600080fd5b8101908080519060200190929190805164010000000081111561108857600080fd5b8281019050602081018481111561109e57600080fd5b81518560018202830111640100000000821117156110bb57600080fd5b505092919060200180516401000000008111156110d757600080fd5b828101905060208101848111156110ed57600080fd5b815185600182028301116401000000008211171561110a57600080fd5b50509291905050508560000186602001876040018390528390528367ffffffffffffffff1667ffffffffffffffff168152505050507ff45e4c0622affcceb3f0efde18f5b7744f002db8ab848048e8d744b852da59cd836000015184602001518560400151604051808467ffffffffffffffff1681526020018060200180602001838103835285818151815260200191508051906020019080838360005b838110156111c35780820151818401526020810190506111a8565b50505050905090810190601f1680156111f05780820380516001836020036101000a031916815260200191505b50838103825284818151815260200191508051906020019080838360005b8381101561122957808201518184015260208101905061120e565b50505050905090810190601f1680156112565780820380516001836020036101000a031916815260200191505b509550505050505060405180910390a1505050565b606060c060405190810160405280608a81526020016122a4608a9139905061136360008054600181600116156101000203166002900480601f0160208091040260200160405190810160405280929190818152602001828054600181600116156101000203166002900480156113225780601f106112f757610100808354040283529160200191611322565b820191906000526020600020905b81548152906001019060200180831161130557829003601f168201915b50505050506040805190810160405280600481526020017f4e616d65000000000000000000000000000000000000000000000000000000008152508361201c565b50565b61136e612277565b60608060405190810160405280600167ffffffffffffffff1681526020016040805190810160405280600581526020017f486172727900000000000000000000000000000000000000000000000000000081525081526020016040805190810160405280600481526020017f31323334000000000000000000000000000000000000000000000000000000008152508152509150816000015182602001518360400151604051602001808467ffffffffffffffff1667ffffffffffffffff1681526020018060200180602001838103835285818151815260200191508051906020019080838360005b83811015611472578082015181840152602081019050611457565b50505050905090810190601f16801561149f5780820380516001836020036101000a031916815260200191505b50838103825284818151815260200191508051906020019080838360005b838110156114d85780820151818401526020810190506114bd565b50505050905090810190601f1680156115055780820380516001836020036101000a031916815260200191505b5095505050505050604051602081830303815290604052905060006115c460008054600181600116156101000203166002900480601f0160208091040260200160405190810160405280929190818152602001828054600181600116156101000203166002900480156115b95780601f1061158e576101008083540402835291602001916115b9565b820191906000526020600020905b81548152906001019060200180831161159c57829003601f168201915b505050505083611a0e565b90507fc33356bc2bad2ce263b056da5d061d4e89c336823d5e77f14c1383aedb7a1b3a81604051808215151515815260200191505060405180910390a1606060405190810160405280600267ffffffffffffffff1681526020016040805190810160405280600581526020017f436872697300000000000000000000000000000000000000000000000000000081525081526020016040805190810160405280600481526020017f34353637000000000000000000000000000000000000000000000000000000008152508152509250826000015183602001518460400151604051602001808467ffffffffffffffff1667ffffffffffffffff1681526020018060200180602001838103835285818151815260200191508051906020019080838360005b838110156117045780820151818401526020810190506116e9565b50505050905090810190601f1680156117315780820380516001836020036101000a031916815260200191505b50838103825284818151815260200191508051906020019080838360005b8381101561176a57808201518184015260208101905061174f565b50505050905090810190601f1680156117975780820380516001836020036101000a031916815260200191505b5095505050505050604051602081830303815290604052915061185460008054600181600116156101000203166002900480601f0160208091040260200160405190810160405280929190818152602001828054600181600116156101000203166002900480156118495780601f1061181e57610100808354040283529160200191611849565b820191906000526020600020905b81548152906001019060200180831161182c57829003601f168201915b505050505083611a0e565b90507fc33356bc2bad2ce263b056da5d061d4e89c336823d5e77f14c1383aedb7a1b3a81604051808215151515815260200191505060405180910390a1505050565b600060608383604051602401808060200180602001838103835285818151815260200191508051906020019080838360005b838110156118e35780820151818401526020810190506118c8565b50505050905090810190601f1680156119105780820380516001836020036101000a031916815260200191505b50838103825284818151815260200191508051906020019080838360005b8381101561194957808201518184015260208101905061192e565b50505050905090810190601f1680156119765780820380516001836020036101000a031916815260200191505b509450505050506040516020818303038152906040527fddbcfb63000000000000000000000000000000000000000000000000000000007bffffffffffffffffffffffffffffffffffffffffffffffffffffffff19166020820180517bffffffffffffffffffffffffffffffffffffffffffffffffffffffff83818316178352505050509050611a0581612214565b91505092915050565b600060608383604051602401808060200180602001838103835285818151815260200191508051906020019080838360005b83811015611a5b578082015181840152602081019050611a40565b50505050905090810190601f168015611a885780820380516001836020036101000a031916815260200191505b50838103825284818151815260200191508051906020019080838360005b83811015611ac1578082015181840152602081019050611aa6565b50505050905090810190601f168015611aee5780820380516001836020036101000a031916815260200191505b509450505050506040516020818303038152906040527f0cd74b36000000000000000000000000000000000000000000000000000000007bffffffffffffffffffffffffffffffffffffffffffffffffffffffff19166020820180517bffffffffffffffffffffffffffffffffffffffffffffffffffffffff83818316178352505050509050611b7d81612214565b91505092915050565b6000606084848460405160240180806020018060200180602001848103845287818151815260200191508051906020019080838360005b83811015611bd8578082015181840152602081019050611bbd565b50505050905090810190601f168015611c055780820380516001836020036101000a031916815260200191505b50848103835286818151815260200191508051906020019080838360005b83811015611c3e578082015181840152602081019050611c23565b50505050905090810190601f168015611c6b5780820380516001836020036101000a031916815260200191505b50848103825285818151815260200191508051906020019080838360005b83811015611ca4578082015181840152602081019050611c89565b50505050905090810190601f168015611cd15780820380516001836020036101000a031916815260200191505b5096505050505050506040516020818303038152906040527f71de1b83000000000000000000000000000000000000000000000000000000007bffffffffffffffffffffffffffffffffffffffffffffffffffffffff19166020820180517bffffffffffffffffffffffffffffffffffffffffffffffffffffffff8381831617835250505050905080516020820160208483836000610102600019f11515611d7857600080fd5b835193505050509392505050565b60606000606083604051602401808281526020019150506040516020818303038152906040527f02d3af5b000000000000000000000000000000000000000000000000000000007bffffffffffffffffffffffffffffffffffffffffffffffffffffffff19166020820180517bffffffffffffffffffffffffffffffffffffffffffffffffffffffff83818316178352505050509050611e2581612240565b92508260008451119250925050915091565b60608084848460405160240180806020018060200180602001848103845287818151815260200191508051906020019080838360005b83811015611e88578082015181840152602081019050611e6d565b50505050905090810190601f168015611eb55780820380516001836020036101000a031916815260200191505b50848103835286818151815260200191508051906020019080838360005b83811015611eee578082015181840152602081019050611ed3565b50505050905090810190601f168015611f1b5780820380516001836020036101000a031916815260200191505b50848103825285818151815260200191508051906020019080838360005b83811015611f54578082015181840152602081019050611f39565b50505050905090810190601f168015611f815780820380516001836020036101000a031916815260200191505b5096505050505050506040516020818303038152906040527fb7c6052f000000000000000000000000000000000000000000000000000000007bffffffffffffffffffffffffffffffffffffffffffffffffffffffff19166020820180517bffffffffffffffffffffffffffffffffffffffffffffffffffffffff8381831617835250505050905061201281612240565b9150509392505050565b606083838360405160240180806020018060200180602001848103845287818151815260200191508051906020019080838360005b8381101561206c578082015181840152602081019050612051565b50505050905090810190601f1680156120995780820380516001836020036101000a031916815260200191505b50848103835286818151815260200191508051906020019080838360005b838110156120d25780820151818401526020810190506120b7565b50505050905090810190601f1680156120ff5780820380516001836020036101000a031916815260200191505b50848103825285818151815260200191508051906020019080838360005b8381101561213857808201518184015260208101905061211d565b50505050905090810190601f1680156121655780820380516001836020036101000a031916815260200191505b5096505050505050506040516020818303038152906040527f56004b6a000000000000000000000000000000000000000000000000000000007bffffffffffffffffffffffffffffffffffffffffffffffffffffffff19166020820180517bffffffffffffffffffffffffffffffffffffffffffffffffffffffff8381831617835250505050905080516020820160008183836000610102600019f1151561220c57600080fd5b505050505050565b600081516020830160208383836000610102600019f1151561223557600080fd5b825192505050919050565b606081516020830161ffff8383836000610102600019f1151561226257600080fd5b82516020810160405101604052505050919050565b606060405190810160405280600067ffffffffffffffff1681526020016060815260200160608152509056fe5b7b2274797065223a227461626c65222c226e616d65223a225573657273222c22696e70757473223a5b7b226e616d65223a224964222c2274797065223a2275696e743634227d2c7b226e616d65223a224e616d65222c2274797065223a22737472696e67227d2c7b226e616d65223a2250617373222c2274797065223a22737472696e67227d5d7d5da165627a7a723058201922dd35e7ccad0f01de51747a3e5503aa507222ac0c373740765805d8d252e80029",
  "source": "pragma solidity ^0.5.0;\n\nimport \"../EbakusDB.sol\";\n\ncontract Example {\n\tevent LogUser(uint Id, string Name, string Pass);\n\tevent LogBool(bool _value);\n\n\tstring TableName = \"Users\";\n\n\tstruct User {\n    uint64 Id;\n    string Name;\n    string Pass;\n  }\n\n\tconstructor() public {\n\t}\n\n\t// This is the constructor which creates the db tables and registers the ABI for them.\n\t// constructor() public {\n\t// \t// [{\n\t// \t// \t\"type\": \"table\",\n\t// \t// \t\"name\": \"Users\",\n\t// \t// \t\"inputs\": [\n\t// \t// \t\t{\"name\": \"Id\", \"type\": \"uint64\"},\n\t// \t// \t\t{\"name\": \"Name\", \"type\": \"string\"},\n\t// \t// \t\t{\"name\": \"Pass\", \"type\": \"string\"},\n\t// \t// \t\t{\"name\": \"Email\", \"type\": \"string\"}\n\t// \t// \t]\n\t// \t// }]\n\t// \tstring memory tablesAbi = '[{\"type\":\"table\",\"name\":\"Users\",\"inputs\":[{\"name\":\"Id\",\"type\":\"uint64\"},{\"name\":\"Name\",\"type\":\"string\"},{\"name\":\"Pass\",\"type\":\"string\"}]}]';\n\n\t// \tbool created = EbakusDB.createTable(TableName, \"Name\", tablesAbi);\n\t// \trequire(created);\n\t// }\n\n\tfunction createTable() external {\n\t\t// [{\n\t\t// \t\"type\": \"table\",\n\t\t// \t\"name\": \"Users\",\n\t\t// \t\"inputs\": [\n\t\t// \t\t{\"name\": \"Id\", \"type\": \"uint64\"},\n\t\t// \t\t{\"name\": \"Name\", \"type\": \"string\"},\n\t\t// \t\t{\"name\": \"Pass\", \"type\": \"string\"}\n\t\t// \t]\n\t\t// }]\n\t\tstring memory tablesAbi = '[{\"type\":\"table\",\"name\":\"Users\",\"inputs\":[{\"name\":\"Id\",\"type\":\"uint64\"},{\"name\":\"Name\",\"type\":\"string\"},{\"name\":\"Pass\",\"type\":\"string\"}]}]';\n\t\tEbakusDB.createTable(TableName, \"Name\", tablesAbi);\n\t}\n\n\tfunction get() external {\n\t\tUser memory u;\n\n\t\tbytes memory prefix = new bytes(0);\n\t\tbytes memory out = EbakusDB.get(TableName, \"Name\", prefix);\n\n\t\t(u.Id, u.Name, u.Pass) = abi.decode(out, (uint64, string, string));\n\t\temit LogUser(u.Id, u.Name, u.Pass);\n\t}\n\n\tfunction select() external {\n\t\tUser memory u;\n\t\tbool found;\n\t\tbytes memory out;\n\n\t\tbytes memory prefix = new bytes(0);\n\t\tbytes32 iter = EbakusDB.select(TableName, \"Name\", prefix);\n\n\t\t(out ,found) = EbakusDB.next(iter);\n\t\tif (found) {\n\t\t\t(u.Id, u.Name, u.Pass) = abi.decode(out, (uint64, string, string));\n\t\t\temit LogUser(u.Id, u.Name, u.Pass);\n\t\t}\n\n\t\t(out ,found) = EbakusDB.next(iter);\n\t\tif (found) {\n\t\t\t(u.Id, u.Name, u.Pass) = abi.decode(out, (uint64, string, string));\n\t\t\temit LogUser(u.Id, u.Name, u.Pass);\n\t\t}\n\n\t\t(out ,found) = EbakusDB.next(iter);\n\t\temit LogBool(!found);\n\t\tif (found) {\n\t\t\t(u.Id, u.Name, u.Pass) = abi.decode(out, (uint64, string, string));\n\t\t\temit LogUser(u.Id, u.Name, u.Pass);\n\t\t}\n\t}\n\n\tfunction insertObj() external {\n\t\tUser memory u;\n\t\tbytes memory input;\n\n\t\tu = User(1, \"Harry\", \"123\");\n\t\tinput = abi.encode(u.Id, u.Name, u.Pass);\n\t\tbool out = EbakusDB.insertObj(TableName, input);\n\t\temit LogBool(out);\n\n\t\tu = User(2, \"Chris\", \"456\");\n\t\tinput = abi.encode(u.Id, u.Name, u.Pass);\n\t\tout = EbakusDB.insertObj(TableName, input);\n\t\temit LogBool(out);\n\t}\n\n\tfunction insertObj2() external {\n\t\tUser memory u;\n\t\tbytes memory input;\n\n\t\tu = User(1, \"Harry\", \"1234\");\n\t\tinput = abi.encode(u.Id, u.Name, u.Pass);\n\t\tbool out = EbakusDB.insertObj(TableName, input);\n\t\temit LogBool(out);\n\n\t\tu = User(2, \"Chris\", \"4567\");\n\t\tinput = abi.encode(u.Id, u.Name, u.Pass);\n\t\tout = EbakusDB.insertObj(TableName, input);\n\t\temit LogBool(out);\n\t}\n\n\tfunction deleteObj() external {\n\t\t// delete user with Id=1\n\t\tbytes memory input = abi.encode(2);\n\t\tbool out = EbakusDB.deleteObj(TableName, input);\n\t\temit LogBool(out);\n\t}\n}\n",
  "sourcePath": "/Users/ziogaschr/Sites/ebakus/ebakusdb-solidity/truffle/contracts/examples/Example.sol",
  "compiler": {
    "name": "solc",
    "version": "0.5.0+commit.1d4f565a.Emscripten.clang"
  },
  "schemaVersion": "3.0.6",
  "updatedAt": "2019-04-16T12:05:51.500Z",
  "devdoc": {
    "methods": {}
  },
  "userdoc": {
    "methods": {}
  }
}