{
  "contractName": "Example",
  "abi": [
    {
      "inputs": [],
      "payable": false,
      "stateMutability": "nonpayable",
      "type": "constructor",
      "signature": "constructor"
    },
    {
      "anonymous": false,
      "inputs": [
        {
          "indexed": false,
          "name": "Id",
          "type": "uint256"
        },
        {
          "indexed": false,
          "name": "Name",
          "type": "string"
        },
        {
          "indexed": false,
          "name": "Pass",
          "type": "string"
        },
        {
          "indexed": false,
          "name": "Email",
          "type": "string"
        }
      ],
      "name": "LogUser",
      "type": "event",
      "signature": "0x3e01d28954fd7049403c3fdcda9bc7f1c8dfebd9513c1bb8fb9eb26a7d0633cf"
    },
    {
      "anonymous": false,
      "inputs": [
        {
          "indexed": false,
          "name": "_value",
          "type": "bool"
        }
      ],
      "name": "LogBool",
      "type": "event",
      "signature": "0xc33356bc2bad2ce263b056da5d061d4e89c336823d5e77f14c1383aedb7a1b3a"
    },
    {
      "constant": false,
      "inputs": [],
      "name": "get",
      "outputs": [],
      "payable": false,
      "stateMutability": "nonpayable",
      "type": "function",
      "signature": "0x6d4ce63c"
    },
    {
      "constant": false,
      "inputs": [],
      "name": "select",
      "outputs": [],
      "payable": false,
      "stateMutability": "nonpayable",
      "type": "function",
      "signature": "0x5398a96b"
    },
    {
      "constant": false,
      "inputs": [],
      "name": "insertObjs",
      "outputs": [],
      "payable": false,
      "stateMutability": "nonpayable",
      "type": "function",
      "signature": "0x82712eea"
    },
    {
      "constant": false,
      "inputs": [],
      "name": "updateObjs",
      "outputs": [],
      "payable": false,
      "stateMutability": "nonpayable",
      "type": "function",
      "signature": "0x46ca3c6d"
    },
    {
      "constant": false,
      "inputs": [],
      "name": "deleteObj",
      "outputs": [],
      "payable": false,
      "stateMutability": "nonpayable",
      "type": "function",
      "signature": "0x3d1ff2e3"
    }
  ],
  "bytecode": "0x60806040526040805190810160405280600581526020017f557365727300000000000000000000000000000000000000000000000000000081525060009080519060200190620000519291906200037c565b503480156200005f57600080fd5b50606060e06040519081016040528060ab8152602001620028ef60ab913990506200017360008054600181600116156101000203166002900480601f0160208091040260200160405190810160405280929190818152602001828054600181600116156101000203166002900480156200011d5780601f10620000f1576101008083540402835291602001916200011d565b820191906000526020600020905b815481529060010190602001808311620000ff57829003601f168201915b50505050506040805190810160405280600a81526020017f4e616d652c456d61696c00000000000000000000000000000000000000000000815250836200017a6401000000000262002290176401000000009004565b506200042b565b606083838360405160240180806020018060200180602001848103845287818151815260200191508051906020019080838360005b83811015620001cc578082015181840152602081019050620001af565b50505050905090810190601f168015620001fa5780820380516001836020036101000a031916815260200191505b50848103835286818151815260200191508051906020019080838360005b838110156200023557808201518184015260208101905062000218565b50505050905090810190601f168015620002635780820380516001836020036101000a031916815260200191505b50848103825285818151815260200191508051906020019080838360005b838110156200029e57808201518184015260208101905062000281565b50505050905090810190601f168015620002cc5780820380516001836020036101000a031916815260200191505b5096505050505050506040516020818303038152906040527f56004b6a000000000000000000000000000000000000000000000000000000007bffffffffffffffffffffffffffffffffffffffffffffffffffffffff19166020820180517bffffffffffffffffffffffffffffffffffffffffffffffffffffffff8381831617835250505050905080516020820160008183836000610102600019f115156200037457600080fd5b505050505050565b828054600181600116156101000203166002900490600052602060002090601f016020900481019282601f10620003bf57805160ff1916838001178555620003f0565b82800160010185558215620003f0579182015b82811115620003ef578251825591602001919060010190620003d2565b5b509050620003ff919062000403565b5090565b6200042891905b80821115620004245760008160009055506001016200040a565b5090565b90565b6124b4806200043b6000396000f3fe60806040526004361061006d576000357c0100000000000000000000000000000000000000000000000000000000900463ffffffff1680633d1ff2e31461007257806346ca3c6d146100895780635398a96b146100a05780636d4ce63c146100b757806382712eea146100ce575b600080fd5b34801561007e57600080fd5b506100876100e5565b005b34801561009557600080fd5b5061009e6101f4565b005b3480156100ac57600080fd5b506100b561087d565b005b3480156100c357600080fd5b506100cc610fea565b005b3480156100da57600080fd5b506100e36113eb565b005b60606002604051602001808260ff168152602001915050604051602081830303815290604052905060006101b360008054600181600116156101000203166002900480601f0160208091040260200160405190810160405280929190818152602001828054600181600116156101000203166002900480156101a85780601f1061017d576101008083540402835291602001916101a8565b820191906000526020600020905b81548152906001019060200180831161018b57829003601f168201915b505050505083611a74565b90507fc33356bc2bad2ce263b056da5d061d4e89c336823d5e77f14c1383aedb7a1b3a81604051808215151515815260200191505060405180910390a15050565b6101fc61225d565b6060608060405190810160405280600167ffffffffffffffff1681526020016040805190810160405280600581526020017f486172727900000000000000000000000000000000000000000000000000000081525081526020016040805190810160405280600481526020017f313233340000000000000000000000000000000000000000000000000000000081525081526020016040805190810160405280601181526020017f686172727379406562616b75732e636f6d00000000000000000000000000000081525081525091508160000151826020015183604001518460600151604051602001808567ffffffffffffffff1667ffffffffffffffff168152602001806020018060200180602001848103845287818151815260200191508051906020019080838360005b8381101561034557808201518184015260208101905061032a565b50505050905090810190601f1680156103725780820380516001836020036101000a031916815260200191505b50848103835286818151815260200191508051906020019080838360005b838110156103ab578082015181840152602081019050610390565b50505050905090810190601f1680156103d85780820380516001836020036101000a031916815260200191505b50848103825285818151815260200191508051906020019080838360005b838110156104115780820151818401526020810190506103f6565b50505050905090810190601f16801561043e5780820380516001836020036101000a031916815260200191505b50975050505050505050604051602081830303815290604052905060006104ff60008054600181600116156101000203166002900480601f0160208091040260200160405190810160405280929190818152602001828054600181600116156101000203166002900480156104f45780601f106104c9576101008083540402835291602001916104f4565b820191906000526020600020905b8154815290600101906020018083116104d757829003601f168201915b505050505083611bec565b90507fc33356bc2bad2ce263b056da5d061d4e89c336823d5e77f14c1383aedb7a1b3a81604051808215151515815260200191505060405180910390a1608060405190810160405280600267ffffffffffffffff1681526020016040805190810160405280600881526020017f4368726973746f7300000000000000000000000000000000000000000000000081525081526020016040805190810160405280600481526020017f343536370000000000000000000000000000000000000000000000000000000081525081526020016040805190810160405280601081526020017f6368726973406562616b75732e636f6d0000000000000000000000000000000081525081525092508260000151836020015184604001518560600151604051602001808567ffffffffffffffff1667ffffffffffffffff168152602001806020018060200180602001848103845287818151815260200191508051906020019080838360005b83811015610683578082015181840152602081019050610668565b50505050905090810190601f1680156106b05780820380516001836020036101000a031916815260200191505b50848103835286818151815260200191508051906020019080838360005b838110156106e95780820151818401526020810190506106ce565b50505050905090810190601f1680156107165780820380516001836020036101000a031916815260200191505b50848103825285818151815260200191508051906020019080838360005b8381101561074f578082015181840152602081019050610734565b50505050905090810190601f16801561077c5780820380516001836020036101000a031916815260200191505b50975050505050505050604051602081830303815290604052915061083b60008054600181600116156101000203166002900480601f0160208091040260200160405190810160405280929190818152602001828054600181600116156101000203166002900480156108305780601f1061080557610100808354040283529160200191610830565b820191906000526020600020905b81548152906001019060200180831161081357829003601f168201915b505050505083611bec565b90507fc33356bc2bad2ce263b056da5d061d4e89c336823d5e77f14c1383aedb7a1b3a81604051808215151515815260200191505060405180910390a1505050565b61088561225d565b600060608060006040519080825280601f01601f1916602001820160405280156108be5781602001600182028038833980820191505090505b509050600061099d60008054600181600116156101000203166002900480601f01602080910402602001604051908101604052809291908181526020018280546001816001161561010002031660029004801561095c5780601f106109315761010080835404028352916020019161095c565b820191906000526020600020905b81548152906001019060200180831161093f57829003601f168201915b50505050506040805190810160405280600481526020017f4e616d650000000000000000000000000000000000000000000000000000000081525084611d64565b90506109a881611f64565b80955081945050508315610c94578280602001905160808110156109cb57600080fd5b810190808051906020019092919080516401000000008111156109ed57600080fd5b82810190506020810184811115610a0357600080fd5b8151856001820283011164010000000082111715610a2057600080fd5b50509291906020018051640100000000811115610a3c57600080fd5b82810190506020810184811115610a5257600080fd5b8151856001820283011164010000000082111715610a6f57600080fd5b50509291906020018051640100000000811115610a8b57600080fd5b82810190506020810184811115610aa157600080fd5b8151856001820283011164010000000082111715610abe57600080fd5b505092919050505088600001896020018a6040018b6060018490528490528490528467ffffffffffffffff1667ffffffffffffffff16815250505050507f3e01d28954fd7049403c3fdcda9bc7f1c8dfebd9513c1bb8fb9eb26a7d0633cf8560000151866020015187604001518860600151604051808567ffffffffffffffff168152602001806020018060200180602001848103845287818151815260200191508051906020019080838360005b83811015610b88578082015181840152602081019050610b6d565b50505050905090810190601f168015610bb55780820380516001836020036101000a031916815260200191505b50848103835286818151815260200191508051906020019080838360005b83811015610bee578082015181840152602081019050610bd3565b50505050905090810190601f168015610c1b5780820380516001836020036101000a031916815260200191505b50848103825285818151815260200191508051906020019080838360005b83811015610c54578082015181840152602081019050610c39565b50505050905090810190601f168015610c815780820380516001836020036101000a031916815260200191505b5097505050505050505060405180910390a15b610c9d81611f64565b80955081945050508315610f8957828060200190516080811015610cc057600080fd5b81019080805190602001909291908051640100000000811115610ce257600080fd5b82810190506020810184811115610cf857600080fd5b8151856001820283011164010000000082111715610d1557600080fd5b50509291906020018051640100000000811115610d3157600080fd5b82810190506020810184811115610d4757600080fd5b8151856001820283011164010000000082111715610d6457600080fd5b50509291906020018051640100000000811115610d8057600080fd5b82810190506020810184811115610d9657600080fd5b8151856001820283011164010000000082111715610db357600080fd5b505092919050505088600001896020018a6040018b6060018490528490528490528467ffffffffffffffff1667ffffffffffffffff16815250505050507f3e01d28954fd7049403c3fdcda9bc7f1c8dfebd9513c1bb8fb9eb26a7d0633cf8560000151866020015187604001518860600151604051808567ffffffffffffffff168152602001806020018060200180602001848103845287818151815260200191508051906020019080838360005b83811015610e7d578082015181840152602081019050610e62565b50505050905090810190601f168015610eaa5780820380516001836020036101000a031916815260200191505b50848103835286818151815260200191508051906020019080838360005b83811015610ee3578082015181840152602081019050610ec8565b50505050905090810190601f168015610f105780820380516001836020036101000a031916815260200191505b50848103825285818151815260200191508051906020019080838360005b83811015610f49578082015181840152602081019050610f2e565b50505050905090810190601f168015610f765780820380516001836020036101000a031916815260200191505b5097505050505050505060405180910390a15b610f9281611f64565b809550819450505083151515610fa757600080fd5b7fc33356bc2bad2ce263b056da5d061d4e89c336823d5e77f14c1383aedb7a1b3a8415604051808215151515815260200191505060405180910390a15050505050565b610ff261225d565b606060006040519080825280601f01601f1916602001820160405280156110285781602001600182028038833980820191505090505b509050606061110760008054600181600116156101000203166002900480601f0160208091040260200160405190810160405280929190818152602001828054600181600116156101000203166002900480156110c65780601f1061109b576101008083540402835291602001916110c6565b820191906000526020600020905b8154815290600101906020018083116110a957829003601f168201915b50505050506040805190810160405280600581526020017f456d61696c00000000000000000000000000000000000000000000000000000081525084612015565b905080806020019051608081101561111e57600080fd5b8101908080519060200190929190805164010000000081111561114057600080fd5b8281019050602081018481111561115657600080fd5b815185600182028301116401000000008211171561117357600080fd5b5050929190602001805164010000000081111561118f57600080fd5b828101905060208101848111156111a557600080fd5b81518560018202830111640100000000821117156111c257600080fd5b505092919060200180516401000000008111156111de57600080fd5b828101905060208101848111156111f457600080fd5b815185600182028301116401000000008211171561121157600080fd5b5050929190505050866000018760200188604001896060018490528490528490528467ffffffffffffffff1667ffffffffffffffff16815250505050507f3e01d28954fd7049403c3fdcda9bc7f1c8dfebd9513c1bb8fb9eb26a7d0633cf8360000151846020015185604001518660600151604051808567ffffffffffffffff168152602001806020018060200180602001848103845287818151815260200191508051906020019080838360005b838110156112db5780820151818401526020810190506112c0565b50505050905090810190601f1680156113085780820380516001836020036101000a031916815260200191505b50848103835286818151815260200191508051906020019080838360005b83811015611341578082015181840152602081019050611326565b50505050905090810190601f16801561136e5780820380516001836020036101000a031916815260200191505b50848103825285818151815260200191508051906020019080838360005b838110156113a757808201518184015260208101905061138c565b50505050905090810190601f1680156113d45780820380516001836020036101000a031916815260200191505b5097505050505050505060405180910390a1505050565b6113f361225d565b6060608060405190810160405280600167ffffffffffffffff1681526020016040805190810160405280600581526020017f486172727900000000000000000000000000000000000000000000000000000081525081526020016040805190810160405280600381526020017f313233000000000000000000000000000000000000000000000000000000000081525081526020016040805190810160405280601081526020017f6861727279406562616b75732e636f6d0000000000000000000000000000000081525081525091508160000151826020015183604001518460600151604051602001808567ffffffffffffffff1667ffffffffffffffff168152602001806020018060200180602001848103845287818151815260200191508051906020019080838360005b8381101561153c578082015181840152602081019050611521565b50505050905090810190601f1680156115695780820380516001836020036101000a031916815260200191505b50848103835286818151815260200191508051906020019080838360005b838110156115a2578082015181840152602081019050611587565b50505050905090810190601f1680156115cf5780820380516001836020036101000a031916815260200191505b50848103825285818151815260200191508051906020019080838360005b838110156116085780820151818401526020810190506115ed565b50505050905090810190601f1680156116355780820380516001836020036101000a031916815260200191505b50975050505050505050604051602081830303815290604052905060006116f660008054600181600116156101000203166002900480601f0160208091040260200160405190810160405280929190818152602001828054600181600116156101000203166002900480156116eb5780601f106116c0576101008083540402835291602001916116eb565b820191906000526020600020905b8154815290600101906020018083116116ce57829003601f168201915b505050505083611bec565b90507fc33356bc2bad2ce263b056da5d061d4e89c336823d5e77f14c1383aedb7a1b3a81604051808215151515815260200191505060405180910390a1608060405190810160405280600267ffffffffffffffff1681526020016040805190810160405280600581526020017f436872697300000000000000000000000000000000000000000000000000000081525081526020016040805190810160405280600381526020017f343536000000000000000000000000000000000000000000000000000000000081525081526020016040805190810160405280601081526020017f6368726973406562616b75732e636f6d0000000000000000000000000000000081525081525092508260000151836020015184604001518560600151604051602001808567ffffffffffffffff1667ffffffffffffffff168152602001806020018060200180602001848103845287818151815260200191508051906020019080838360005b8381101561187a57808201518184015260208101905061185f565b50505050905090810190601f1680156118a75780820380516001836020036101000a031916815260200191505b50848103835286818151815260200191508051906020019080838360005b838110156118e05780820151818401526020810190506118c5565b50505050905090810190601f16801561190d5780820380516001836020036101000a031916815260200191505b50848103825285818151815260200191508051906020019080838360005b8381101561194657808201518184015260208101905061192b565b50505050905090810190601f1680156119735780820380516001836020036101000a031916815260200191505b509750505050505050506040516020818303038152906040529150611a3260008054600181600116156101000203166002900480601f016020809104026020016040519081016040528092919081815260200182805460018160011615610100020316600290048015611a275780601f106119fc57610100808354040283529160200191611a27565b820191906000526020600020905b815481529060010190602001808311611a0a57829003601f168201915b505050505083611bec565b90507fc33356bc2bad2ce263b056da5d061d4e89c336823d5e77f14c1383aedb7a1b3a81604051808215151515815260200191505060405180910390a1505050565b600060608383604051602401808060200180602001838103835285818151815260200191508051906020019080838360005b83811015611ac1578082015181840152602081019050611aa6565b50505050905090810190601f168015611aee5780820380516001836020036101000a031916815260200191505b50838103825284818151815260200191508051906020019080838360005b83811015611b27578082015181840152602081019050611b0c565b50505050905090810190601f168015611b545780820380516001836020036101000a031916815260200191505b509450505050506040516020818303038152906040527fddbcfb63000000000000000000000000000000000000000000000000000000007bffffffffffffffffffffffffffffffffffffffffffffffffffffffff19166020820180517bffffffffffffffffffffffffffffffffffffffffffffffffffffffff83818316178352505050509050611be3816121fa565b91505092915050565b600060608383604051602401808060200180602001838103835285818151815260200191508051906020019080838360005b83811015611c39578082015181840152602081019050611c1e565b50505050905090810190601f168015611c665780820380516001836020036101000a031916815260200191505b50838103825284818151815260200191508051906020019080838360005b83811015611c9f578082015181840152602081019050611c84565b50505050905090810190601f168015611ccc5780820380516001836020036101000a031916815260200191505b509450505050506040516020818303038152906040527f0cd74b36000000000000000000000000000000000000000000000000000000007bffffffffffffffffffffffffffffffffffffffffffffffffffffffff19166020820180517bffffffffffffffffffffffffffffffffffffffffffffffffffffffff83818316178352505050509050611d5b816121fa565b91505092915050565b6000606084848460405160240180806020018060200180602001848103845287818151815260200191508051906020019080838360005b83811015611db6578082015181840152602081019050611d9b565b50505050905090810190601f168015611de35780820380516001836020036101000a031916815260200191505b50848103835286818151815260200191508051906020019080838360005b83811015611e1c578082015181840152602081019050611e01565b50505050905090810190601f168015611e495780820380516001836020036101000a031916815260200191505b50848103825285818151815260200191508051906020019080838360005b83811015611e82578082015181840152602081019050611e67565b50505050905090810190601f168015611eaf5780820380516001836020036101000a031916815260200191505b5096505050505050506040516020818303038152906040527f71de1b83000000000000000000000000000000000000000000000000000000007bffffffffffffffffffffffffffffffffffffffffffffffffffffffff19166020820180517bffffffffffffffffffffffffffffffffffffffffffffffffffffffff8381831617835250505050905080516020820160208483836000610102600019f11515611f5657600080fd5b835193505050509392505050565b60606000606083604051602401808281526020019150506040516020818303038152906040527f02d3af5b000000000000000000000000000000000000000000000000000000007bffffffffffffffffffffffffffffffffffffffffffffffffffffffff19166020820180517bffffffffffffffffffffffffffffffffffffffffffffffffffffffff8381831617835250505050905061200381612226565b92508260008451119250925050915091565b60608084848460405160240180806020018060200180602001848103845287818151815260200191508051906020019080838360005b8381101561206657808201518184015260208101905061204b565b50505050905090810190601f1680156120935780820380516001836020036101000a031916815260200191505b50848103835286818151815260200191508051906020019080838360005b838110156120cc5780820151818401526020810190506120b1565b50505050905090810190601f1680156120f95780820380516001836020036101000a031916815260200191505b50848103825285818151815260200191508051906020019080838360005b83811015612132578082015181840152602081019050612117565b50505050905090810190601f16801561215f5780820380516001836020036101000a031916815260200191505b5096505050505050506040516020818303038152906040527fb7c6052f000000000000000000000000000000000000000000000000000000007bffffffffffffffffffffffffffffffffffffffffffffffffffffffff19166020820180517bffffffffffffffffffffffffffffffffffffffffffffffffffffffff838183161783525050505090506121f081612226565b9150509392505050565b600081516020830160208383836000610102600019f1151561221b57600080fd5b825192505050919050565b606081516020830161ffff8383836000610102600019f1151561224857600080fd5b82516020810160405101604052505050919050565b608060405190810160405280600067ffffffffffffffff1681526020016060815260200160608152602001606081525090565b606083838360405160240180806020018060200180602001848103845287818151815260200191508051906020019080838360005b838110156122e05780820151818401526020810190506122c5565b50505050905090810190601f16801561230d5780820380516001836020036101000a031916815260200191505b50848103835286818151815260200191508051906020019080838360005b8381101561234657808201518184015260208101905061232b565b50505050905090810190601f1680156123735780820380516001836020036101000a031916815260200191505b50848103825285818151815260200191508051906020019080838360005b838110156123ac578082015181840152602081019050612391565b50505050905090810190601f1680156123d95780820380516001836020036101000a031916815260200191505b5096505050505050506040516020818303038152906040527f56004b6a000000000000000000000000000000000000000000000000000000007bffffffffffffffffffffffffffffffffffffffffffffffffffffffff19166020820180517bffffffffffffffffffffffffffffffffffffffffffffffffffffffff8381831617835250505050905080516020820160008183836000610102600019f1151561248057600080fd5b50505050505056fea165627a7a72305820d525c570920a51548397bca639361e792b6ce9db59b51a474556cb1b6e3cbf6600295b7b2274797065223a227461626c65222c226e616d65223a225573657273222c22696e70757473223a5b7b226e616d65223a224964222c2274797065223a2275696e743634227d2c7b226e616d65223a224e616d65222c2274797065223a22737472696e67227d2c7b226e616d65223a2250617373222c2274797065223a22737472696e67227d2c7b226e616d65223a22456d61696c222c2274797065223a22737472696e67227d5d7d5d",
  "source": "pragma solidity ^0.5.0;\n\nimport \"../EbakusDB.sol\";\n\ncontract Example {\n\tevent LogUser(uint Id, string Name, string Pass, string Email);\n\tevent LogBool(bool _value);\n\n\tstring TableName = \"Users\";\n\n\tstruct User {\n    uint64 Id;\n    string Name;\n    string Pass;\n    string Email;\n  }\n\n\tconstructor() public {\n\t\t// [{\n\t\t// \t\"type\": \"table\",\n\t\t// \t\"name\": \"Users\",\n\t\t// \t\"inputs\": [\n\t\t// \t\t{\"name\": \"Id\", \"type\": \"uint64\"},\n\t\t// \t\t{\"name\": \"Name\", \"type\": \"string\"},\n\t\t// \t\t{\"name\": \"Pass\", \"type\": \"string\"},\n\t\t// \t\t{\"name\": \"Email\", \"type\": \"string\"}\n\t\t// \t]\n\t\t// }]\n\t\tstring memory tablesAbi = '[{\"type\":\"table\",\"name\":\"Users\",\"inputs\":[{\"name\":\"Id\",\"type\":\"uint64\"},{\"name\":\"Name\",\"type\":\"string\"},{\"name\":\"Pass\",\"type\":\"string\"},{\"name\":\"Email\",\"type\":\"string\"}]}]';\n\t\tEbakusDB.createTable(TableName, \"Name,Email\", tablesAbi);\n\t}\n\n\tfunction get() external {\n\t\tUser memory u;\n\n\t\tbytes memory key = new bytes(0);\n\t\tbytes memory out = EbakusDB.get(TableName, \"Email\", key);\n\n\t\t(u.Id, u.Name, u.Pass, u.Email) = abi.decode(out, (uint64, string, string, string));\n\t\temit LogUser(u.Id, u.Name, u.Pass, u.Email);\n\t}\n\n\tfunction select() external {\n\t\tUser memory u;\n\t\tbool found;\n\t\tbytes memory out;\n\n\t\tbytes memory prefix = new bytes(0);\n\t\tbytes32 iter = EbakusDB.select(TableName, \"Name\", prefix);\n\n\t\t(out ,found) = EbakusDB.next(iter);\n\t\tif (found) {\n\t\t\t(u.Id, u.Name, u.Pass, u.Email) = abi.decode(out, (uint64, string, string, string));\n\t\t\temit LogUser(u.Id, u.Name, u.Pass, u.Email);\n\t\t}\n\n\t\t(out ,found) = EbakusDB.next(iter);\n\t\tif (found) {\n\t\t\t(u.Id, u.Name, u.Pass, u.Email) = abi.decode(out, (uint64, string, string, string));\n\t\t\temit LogUser(u.Id, u.Name, u.Pass, u.Email);\n\t\t}\n\n\t\t(out ,found) = EbakusDB.next(iter);\n\t\trequire(!found);\n\t\temit LogBool(!found);\n\t}\n\n\tfunction insertObjs() external {\n\t\tUser memory u;\n\t\tbytes memory input;\n\n\t\tu = User(1, \"Harry\", \"123\", \"harry@ebakus.com\");\n\t\tinput = abi.encode(u.Id, u.Name, u.Pass, u.Email);\n\t\tbool out = EbakusDB.insertObj(TableName, input);\n\t\temit LogBool(out);\n\n\t\tu = User(2, \"Chris\", \"456\", \"chris@ebakus.com\");\n\t\tinput = abi.encode(u.Id, u.Name, u.Pass, u.Email);\n\t\tout = EbakusDB.insertObj(TableName, input);\n\t\temit LogBool(out);\n\t}\n\n\tfunction updateObjs() external {\n\t\tUser memory u;\n\t\tbytes memory input;\n\n\t\tu = User(1, \"Harry\", \"1234\", \"harrsy@ebakus.com\");\n\t\tinput = abi.encode(u.Id, u.Name, u.Pass, u.Email);\n\t\tbool out = EbakusDB.insertObj(TableName, input);\n\t\temit LogBool(out);\n\n\t\tu = User(2, \"Christos\", \"4567\", \"chris@ebakus.com\");\n\t\tinput = abi.encode(u.Id, u.Name, u.Pass, u.Email);\n\t\tout = EbakusDB.insertObj(TableName, input);\n\t\temit LogBool(out);\n\t}\n\n\tfunction deleteObj() external {\n\t\t// delete user with Id=2\n\t\tbytes memory input = abi.encode(2);\n\t\tbool out = EbakusDB.deleteObj(TableName, input);\n\t\temit LogBool(out);\n\t}\n}\n",
  "sourcePath": "/Users/ziogaschr/Sites/ebakus/ebakusdb-solidity/truffle/contracts/examples/Example.sol",
  "compiler": {
    "name": "solc",
    "version": "0.5.0+commit.1d4f565a.Emscripten.clang"
  },
  "schemaVersion": "3.0.6",
  "updatedAt": "2019-04-23T07:41:24.262Z",
  "devdoc": {
    "methods": {}
  },
  "userdoc": {
    "methods": {}
  }
}