{
  "contractName": "Example",
  "abi": [
    {
      "inputs": [],
      "payable": false,
      "stateMutability": "nonpayable",
      "type": "constructor",
      "signature": "constructor"
    },
    {
      "anonymous": false,
      "inputs": [
        {
          "indexed": false,
          "name": "_value",
          "type": "uint256"
        }
      ],
      "name": "Log",
      "type": "event",
      "signature": "0x909c57d5c6ac08245cf2a6de3900e2b868513fa59099b92b27d8db823d92df9c"
    },
    {
      "anonymous": false,
      "inputs": [
        {
          "indexed": false,
          "name": "id",
          "type": "uint256"
        },
        {
          "indexed": false,
          "name": "pass",
          "type": "uint256"
        }
      ],
      "name": "LogUser",
      "type": "event",
      "signature": "0x1e9b0da9d00f46e167043cebcde947495b8db33766bc0d6feca3623333547bee"
    },
    {
      "anonymous": false,
      "inputs": [
        {
          "indexed": false,
          "name": "_value",
          "type": "bytes"
        }
      ],
      "name": "LogBytes",
      "type": "event",
      "signature": "0x532fd6ea96cfb78bb46e09279a26828b8b493de1a2b8b1ee1face527978a15a5"
    },
    {
      "anonymous": false,
      "inputs": [
        {
          "indexed": false,
          "name": "_value",
          "type": "bytes32[]"
        }
      ],
      "name": "LogBytes32",
      "type": "event",
      "signature": "0x97630df059b71000777587b88d63458cd4cd3a478ba0aa462b423a30640c014c"
    },
    {
      "anonymous": false,
      "inputs": [
        {
          "indexed": false,
          "name": "_value",
          "type": "bool"
        }
      ],
      "name": "LogBool",
      "type": "event",
      "signature": "0xc33356bc2bad2ce263b056da5d061d4e89c336823d5e77f14c1383aedb7a1b3a"
    },
    {
      "constant": false,
      "inputs": [
        {
          "name": "amount",
          "type": "uint256"
        }
      ],
      "name": "get",
      "outputs": [
        {
          "name": "",
          "type": "uint256"
        }
      ],
      "payable": false,
      "stateMutability": "nonpayable",
      "type": "function",
      "signature": "0x9507d39a"
    },
    {
      "constant": false,
      "inputs": [
        {
          "name": "amount",
          "type": "uint256"
        }
      ],
      "name": "set",
      "outputs": [
        {
          "name": "",
          "type": "uint256"
        }
      ],
      "payable": false,
      "stateMutability": "nonpayable",
      "type": "function",
      "signature": "0x60fe47b1"
    },
    {
      "constant": false,
      "inputs": [],
      "name": "forStruct",
      "outputs": [],
      "payable": false,
      "stateMutability": "nonpayable",
      "type": "function",
      "signature": "0x7ca4bc1e"
    },
    {
      "constant": false,
      "inputs": [],
      "name": "createTable",
      "outputs": [],
      "payable": false,
      "stateMutability": "nonpayable",
      "type": "function",
      "signature": "0xb2a4c897"
    },
    {
      "constant": false,
      "inputs": [],
      "name": "insertObj",
      "outputs": [],
      "payable": false,
      "stateMutability": "nonpayable",
      "type": "function",
      "signature": "0x4e44a8e2"
    },
    {
      "constant": false,
      "inputs": [],
      "name": "deleteObj",
      "outputs": [],
      "payable": false,
      "stateMutability": "nonpayable",
      "type": "function",
      "signature": "0x3d1ff2e3"
    },
    {
      "constant": false,
      "inputs": [],
      "name": "select",
      "outputs": [],
      "payable": false,
      "stateMutability": "nonpayable",
      "type": "function",
      "signature": "0x5398a96b"
    }
  ],
  "bytecode": "0x60806040526040518060400160405280600b81526020017f546573744578616d706c65000000000000000000000000000000000000000000815250600090805190602001906200005192919062000066565b503480156200005f57600080fd5b5062000115565b828054600181600116156101000203166002900490600052602060002090601f016020900481019282601f10620000a957805160ff1916838001178555620000da565b82800160010185558215620000da579182015b82811115620000d9578251825591602001919060010190620000bc565b5b509050620000e99190620000ed565b5090565b6200011291905b808211156200010e576000816000905550600101620000f4565b5090565b90565b6118ea80620001256000396000f3fe608060405234801561001057600080fd5b506004361061009a576000357c01000000000000000000000000000000000000000000000000000000009004806360fe47b11161007857806360fe47b1146100bd5780637ca4bc1e146100ff5780639507d39a14610109578063b2a4c8971461014b5761009a565b80633d1ff2e31461009f5780634e44a8e2146100a95780635398a96b146100b3575b600080fd5b6100a7610155565b005b6100b16104e7565b005b6100bb6108a7565b005b6100e9600480360360208110156100d357600080fd5b8101908080359060200190929190505050610c1b565b6040518082815260200191505060405180910390f35b610107610c2d565b005b6101356004803603602081101561011f57600080fd5b8101908080359060200190929190505050610cd8565b6040518082815260200191505060405180910390f35b610153610cea565b005b61015d611882565b60405180604001604052806001815260200160038152509050606081600001516040516020018082815260200191505060405160208183030381529060405290507f532fd6ea96cfb78bb46e09279a26828b8b493de1a2b8b1ee1face527978a15a5816040518080602001828103825283818151815260200191508051906020019080838360005b838110156102005780820151818401526020810190506101e5565b50505050905090810190601f16801561022d5780820380516001836020036101000a031916815260200191505b509250505060405180910390a160006102e060008054600181600116156101000203166002900480601f0160208091040260200160405190810160405280929190818152602001828054600181600116156101000203166002900480156102d55780601f106102aa576101008083540402835291602001916102d5565b820191906000526020600020905b8154815290600101906020018083116102b857829003601f168201915b505050505083610e05565b90507fc33356bc2bad2ce263b056da5d061d4e89c336823d5e77f14c1383aedb7a1b3a81604051808215151515815260200191505060405180910390a1610325611882565b6040518060400160405280600281526020016004815250905080600001516040516020018082815260200191505060405160208183030381529060405292507f532fd6ea96cfb78bb46e09279a26828b8b493de1a2b8b1ee1face527978a15a5836040518080602001828103825283818151815260200191508051906020019080838360005b838110156103c65780820151818401526020810190506103ab565b50505050905090810190601f1680156103f35780820380516001836020036101000a031916815260200191505b509250505060405180910390a16104a460008054600181600116156101000203166002900480601f0160208091040260200160405190810160405280929190818152602001828054600181600116156101000203166002900480156104995780601f1061046e57610100808354040283529160200191610499565b820191906000526020600020905b81548152906001019060200180831161047c57829003601f168201915b505050505084610e05565b91507fc33356bc2bad2ce263b056da5d061d4e89c336823d5e77f14c1383aedb7a1b3a82604051808215151515815260200191505060405180910390a150505050565b6104ef611882565b60405180604001604052806001815260200160038152509050610510611882565b6040518060400160405280600281526020016004815250905060608260000151604051602001808281526020019150506040516020818303038152906040529050606083600001518460200151604051602001808381526020018281526020019250505060405160208183030381529060405290507f532fd6ea96cfb78bb46e09279a26828b8b493de1a2b8b1ee1face527978a15a5826040518080602001828103825283818151815260200191508051906020019080838360005b838110156105e75780820151818401526020810190506105cc565b50505050905090810190601f1680156106145780820380516001836020036101000a031916815260200191505b509250505060405180910390a17f532fd6ea96cfb78bb46e09279a26828b8b493de1a2b8b1ee1face527978a15a5816040518080602001828103825283818151815260200191508051906020019080838360005b83811015610683578082015181840152602081019050610668565b50505050905090810190601f1680156106b05780820380516001836020036101000a031916815260200191505b509250505060405180910390a1600061076460008054600181600116156101000203166002900480601f0160208091040260200160405190810160405280929190818152602001828054600181600116156101000203166002900480156107585780601f1061072d57610100808354040283529160200191610758565b820191906000526020600020905b81548152906001019060200180831161073b57829003601f168201915b50505050508484610f96565b90507fc33356bc2bad2ce263b056da5d061d4e89c336823d5e77f14c1383aedb7a1b3a81604051808215151515815260200191505060405180910390a18360000151604051602001808281526020019150506040516020818303038152906040529250836000015184602001516040516020018083815260200182815260200192505050604051602081830303815290604052915061089e60008054600181600116156101000203166002900480601f0160208091040260200160405190810160405280929190818152602001828054600181600116156101000203166002900480156108925780601f1061086757610100808354040283529160200191610892565b820191906000526020600020905b81548152906001019060200180831161087557829003601f168201915b50505050508484610f96565b90505050505050565b606060006040519080825280601f01601f1916602001820160405280156108dd5781602001600182028038833980820191505090505b50905060006109bc60008054600181600116156101000203166002900480601f01602080910402602001604051908101604052809291908181526020018280546001816001161561010002031660029004801561097b5780601f106109505761010080835404028352916020019161097b565b820191906000526020600020905b81548152906001019060200180831161095e57829003601f168201915b50505050506040518060400160405280600281526020017f496400000000000000000000000000000000000000000000000000000000000081525084611195565b905060606109c982611393565b90507f532fd6ea96cfb78bb46e09279a26828b8b493de1a2b8b1ee1face527978a15a5816040518080602001828103825283818151815260200191508051906020019080838360005b83811015610a2d578082015181840152602081019050610a12565b50505050905090810190601f168015610a5a5780820380516001836020036101000a031916815260200191505b509250505060405180910390a1600080828060200190516040811015610a7f57600080fd5b81019080805190602001909291908051906020019092919050505080925081935050507f909c57d5c6ac08245cf2a6de3900e2b868513fa59099b92b27d8db823d92df9c826040518082815260200191505060405180910390a17f909c57d5c6ac08245cf2a6de3900e2b868513fa59099b92b27d8db823d92df9c816040518082815260200191505060405180910390a1610b18611882565b60405180604001604052808481526020018381525090507f1e9b0da9d00f46e167043cebcde947495b8db33766bc0d6feca3623333547bee81600001518260200151604051808381526020018281526020019250505060405180910390a1610b7f85611393565b9350610b89611882565b848060200190516040811015610b9e57600080fd5b8101908080519060200190929190805190602001909291905050508260000183602001828152508281525050507f1e9b0da9d00f46e167043cebcde947495b8db33766bc0d6feca3623333547bee81600001518260200151604051808381526020018281526020019250505060405180910390a150505050505050565b6000610c268261145a565b9050919050565b6060610c376114c3565b90507f532fd6ea96cfb78bb46e09279a26828b8b493de1a2b8b1ee1face527978a15a5816040518080602001828103825283818151815260200191508051906020019080838360005b83811015610c9b578082015181840152602081019050610c80565b50505050905090810190601f168015610cc85780820380516001836020036101000a031916815260200191505b509250505060405180910390a150565b6000610ce382611673565b9050919050565b6000610dc560008054600181600116156101000203166002900480601f016020809104026020016040519081016040528092919081815260200182805460018160011615610100020316600290048015610d855780601f10610d5a57610100808354040283529160200191610d85565b820191906000526020600020905b815481529060010190602001808311610d6857829003601f168201915b50505050506040518060400160405280600281526020017f49640000000000000000000000000000000000000000000000000000000000008152506116f1565b90507fc33356bc2bad2ce263b056da5d061d4e89c336823d5e77f14c1383aedb7a1b3a81604051808215151515815260200191505060405180910390a150565b600060608383604051602401808060200180602001838103835285818151815260200191508051906020019080838360005b83811015610e52578082015181840152602081019050610e37565b50505050905090810190601f168015610e7f5780820380516001836020036101000a031916815260200191505b50838103825284818151815260200191508051906020019080838360005b83811015610eb8578082015181840152602081019050610e9d565b50505050905090810190601f168015610ee55780820380516001836020036101000a031916815260200191505b509450505050506040516020818303038152906040527fddbcfb63000000000000000000000000000000000000000000000000000000007bffffffffffffffffffffffffffffffffffffffffffffffffffffffff19166020820180517bffffffffffffffffffffffffffffffffffffffffffffffffffffffff8381831617835250505050905080516020820161ffff8483836000610102600019f1610f8957600080fd5b8051935050505092915050565b6000606084848460405160240180806020018060200180602001848103845287818151815260200191508051906020019080838360005b83811015610fe8578082015181840152602081019050610fcd565b50505050905090810190601f1680156110155780820380516001836020036101000a031916815260200191505b50848103835286818151815260200191508051906020019080838360005b8381101561104e578082015181840152602081019050611033565b50505050905090810190601f16801561107b5780820380516001836020036101000a031916815260200191505b50848103825285818151815260200191508051906020019080838360005b838110156110b4578082015181840152602081019050611099565b50505050905090810190601f1680156110e15780820380516001836020036101000a031916815260200191505b5096505050505050506040516020818303038152906040527f40fe1637000000000000000000000000000000000000000000000000000000007bffffffffffffffffffffffffffffffffffffffffffffffffffffffff19166020820180517bffffffffffffffffffffffffffffffffffffffffffffffffffffffff8381831617835250505050905080516020820161ffff8483836000610102600019f161118757600080fd5b805193505050509392505050565b6000606084848460405160240180806020018060200180602001848103845287818151815260200191508051906020019080838360005b838110156111e75780820151818401526020810190506111cc565b50505050905090810190601f1680156112145780820380516001836020036101000a031916815260200191505b50848103835286818151815260200191508051906020019080838360005b8381101561124d578082015181840152602081019050611232565b50505050905090810190601f16801561127a5780820380516001836020036101000a031916815260200191505b50848103825285818151815260200191508051906020019080838360005b838110156112b3578082015181840152602081019050611298565b50505050905090810190601f1680156112e05780820380516001836020036101000a031916815260200191505b5096505050505050506040516020818303038152906040527f71de1b83000000000000000000000000000000000000000000000000000000007bffffffffffffffffffffffffffffffffffffffffffffffffffffffff19166020820180517bffffffffffffffffffffffffffffffffffffffffffffffffffffffff8381831617835250505050905080516020820160208483836000610102600019f161138557600080fd5b835193505050509392505050565b60608082604051602401808281526020019150506040516020818303038152906040527f02d3af5b000000000000000000000000000000000000000000000000000000007bffffffffffffffffffffffffffffffffffffffffffffffffffffffff19166020820180517bffffffffffffffffffffffffffffffffffffffffffffffffffffffff8381831617835250505050905080516020820161ffff8483836000610102600019f161144457600080fd5b8351602081016040510160405250505050919050565b60008060405180807f6765742875696e74363429000000000000000000000000000000000000000000815250600b019050604051809103902090506040518181528360048201526020816024836000610102600019f18151935060248201604052505050919050565b6060600060405180807f666f725374727563742829000000000000000000000000000000000000000000815250600b019050604051809103902090507f532fd6ea96cfb78bb46e09279a26828b8b493de1a2b8b1ee1face527978a15a5826040518080602001828103825283818151815260200191508051906020019080838360005b83811015611561578082015181840152602081019050611546565b50505050905090810190601f16801561158e5780820380516001836020036101000a031916815260200191505b509250505060405180910390a160405181815261ffff836004836000610102600019f180600081146115bf576115c4565b600080fd5b5083516020810183016040525050507f532fd6ea96cfb78bb46e09279a26828b8b493de1a2b8b1ee1face527978a15a5826040518080602001828103825283818151815260200191508051906020019080838360005b8381101561163557808201518184015260208101905061161a565b50505050905090810190601f1680156116625780820380516001836020036101000a031916815260200191505b509250505060405180910390a15090565b600061167d61189c565b828160006001811061168b57fe5b6020020181815250507f909c57d5c6ac08245cf2a6de3900e2b868513fa59099b92b27d8db823d92df9c836040518082815260200191505060405180910390a16040516020816020846000610102600019f16116e657600080fd5b805192505050919050565b600060608383604051602401808060200180602001838103835285818151815260200191508051906020019080838360005b8381101561173e578082015181840152602081019050611723565b50505050905090810190601f16801561176b5780820380516001836020036101000a031916815260200191505b50838103825284818151815260200191508051906020019080838360005b838110156117a4578082015181840152602081019050611789565b50505050905090810190601f1680156117d15780820380516001836020036101000a031916815260200191505b509450505050506040516020818303038152906040527ffc8b4adf000000000000000000000000000000000000000000000000000000007bffffffffffffffffffffffffffffffffffffffffffffffffffffffff19166020820180517bffffffffffffffffffffffffffffffffffffffffffffffffffffffff8381831617835250505050905080516020820161ffff8183836000610102600019f161187557600080fd5b8051935050505092915050565b604051806040016040528060008152602001600081525090565b604051806020016040528060019060208202803883398082019150509050509056fea165627a7a72305820afeeac14086808a55d38557429fae78466bf79ea22bb2cf7991bab04829084eb0029",
  "source": "pragma solidity ^0.5.7;\n// pragma experimental ABIEncoderV2;\n\nimport \"./EbakusDB.sol\";\n\ncontract Example {\n\tevent Log(uint _value);\n\tevent LogUser(uint id, uint pass);\n\tevent LogBytes(bytes _value);\n\tevent LogBytes32(bytes32[] _value);\n\tevent LogBool(bool _value);\n\n\tstring TableName = \"TestExample\";\n\n\tstruct User {\n    uint256 Id;\n    uint256 Pass;\n  }\n\tUser[] users;\n\n\tconstructor() public {\n\t\t// balances[tx.origin] = 10000;\n\t}\n\n\tfunction get(uint256 amount) external returns(uint256) {\n\t\treturn EbakusDB.get(amount);\n\t}\n\n\tfunction set(uint256 amount) external returns(uint256) {\n\t\treturn EbakusDB.set(amount);\n\t}\n\n\tfunction forStruct() external {\n\t\t// bytes[] memory ar;\n\t\tbytes memory out = EbakusDB.forStruct();\n\n\t\t// (ar) = abi.decode(out, (bytes[]));\n\t\t// // for (uint i = 0; i < 1; i++) {\n\t\t\t// (uint _id, uint _pass) = abi.decode(ar[i], (uint, uint));\n\t\t\t// User memory u = User(_id, _pass);\n\t\t\t// emit LogUser(u.Id, u.Pass);\n\t\t// }\n\n\t\t// bytes memory o = new bytes(0x40);\n\t\t// o[0] = \"a\";\n\t\t// o[0x40-1] = \"b\";\n\n\t\t// emit LogBytes(o);\n\t\temit LogBytes(out);\n\n\t\t// uint256 _id;\n\t\t// uint256 _pass;\n\n\t\t// (_id, _pass) = abi.decode(out, (uint256, uint256));\n\t\t// emit Log(_id);\n\t\t// emit Log(_pass);\n\t\t// User memory u = User(_id, _pass);\n\t\t// emit LogUser(u.Id, u.Pass);\n\t}\n\n// \tfunction decoce(data) private {\n//     uint _amount;\n//     address _receiver;\n//     address _tokenLeadContract;\n//     uint _expectedAmount;\n//     address _expectedSC;\n//     (_amount, _receiver, _tokenLeadContract, _expectedAmount, _expectedSC) = abi.decode(data, (uint, address, address, uint, address));\n//  }\n\n\t\tfunction createTable() external {\n\t\t\t// string[] memory indexes;\n\t\t\t// indexes[0] = \"Name\";\n\t\t\t// indexes[1] = \"Number\";\n\t\t\t// bool out = EbakusDB.createTable(TableName, indexes);\n\n\t\t\tbool out = EbakusDB.createTable(TableName, \"Id\");\n\t\t\temit LogBool(out);\n\t\t\t// return out;\n\t\t}\n\n\t\tfunction insertObj() external {\n\t\t\tUser memory u1 = User(1, 3);\n\t\t\tUser memory u2 = User(2, 4);\n\t\t\t// users.push(u1);\n\t\t\t// users.push(u2);\n\n\t\t\tbytes memory index = abi.encode(u1.Id);\n\t\t\tbytes memory input = abi.encode(u1.Id, u1.Pass);\n\t\t\temit LogBytes(index);\n\t\t\temit LogBytes(input);\n\n\t\t\tbool out = EbakusDB.insertObj(TableName, index, input);\n\t\t\temit LogBool(out);\n\t\t\t// return out;\n\n\t\t\tindex = abi.encode(u2.Id);\n\t\t\tinput = abi.encode(u2.Id, u2.Pass);\n\t\t\tout = EbakusDB.insertObj(TableName, index, input);\n\t\t}\n\n\t\tfunction deleteObj() external {\n\t\t\tUser memory u1 = User(1, 3);\n\t\t\t// User memory u2 = User(2, 4);\n\t\t\t// users.push(u1);\n\t\t\t// users.push(u2);\n\n\t\t\tbytes memory input = abi.encode(u1.Id);\n\t\t\temit LogBytes(input);\n\n\t\t\tbool out = EbakusDB.deleteObj(TableName, input);\n\t\t\temit LogBool(out);\n\n\t\t\tUser memory u2 = User(2, 4);\n\t\t\tinput = abi.encode(u2.Id);\n\t\t\temit LogBytes(input);\n\n\t\t\tout = EbakusDB.deleteObj(TableName, input);\n\t\t\temit LogBool(out);\n\t\t\t// return out;\n\t\t}\n\n\t\tfunction select() external {\n\t\t\tbytes memory prefix = new bytes(0);\n\t\t\tbytes32 iter = EbakusDB.select(TableName, \"Id\", prefix);\n\t\t\t// emit LogBytes(iter);\n\t\t\tbytes memory out = EbakusDB.next(iter);\n\t\t\temit LogBytes(out);\n\n\t\t\tuint256 _id;\n\t\t\tuint256 _pass;\n\n\t\t\t(_id, _pass) = abi.decode(out, (uint256, uint256));\n\t\t\temit Log(_id);\n\t\t\temit Log(_pass);\n\n\t\t\tUser memory u = User(_id, _pass);\n\t\t\temit LogUser(u.Id, u.Pass);\n\n\t\t\tout = EbakusDB.next(iter);\n\n\t\t\tUser memory u2;\n\t\t\t(u2.Id, u2.Pass) = abi.decode(out, (uint256, uint256));\n\t\t\temit LogUser(u2.Id, u2.Pass);\n\t\t}\n}\n",
  "sourcePath": "/Users/ziogaschr/Sites/ebakus/ebakusdb-solidity/contracts/Example.sol",
  "compiler": {
    "name": "solc",
    "version": "0.5.7+commit.6da8b019.Emscripten.clang"
  },
  "schemaVersion": "3.0.6",
  "updatedAt": "2019-04-09T12:35:51.973Z",
  "devdoc": {
    "methods": {}
  },
  "userdoc": {
    "methods": {}
  }
}